:020000040800F2
:100000000050002031100008C9020008CB0200088F
:10001000CD020008CF020008D10200080000000055
:10002000000000000000000000000000FD070008C4
:10003000D30200080000000021080008650800083D
:10004000811000088110000881100008811000084C
:10005000811000088110000881100008811000083C
:10006000811000088110000881100008811000082C
:10007000811000088110000881100008811000081C
:10008000811000088110000881100008811000080C
:1000900081100008811000088110000881100008FC
:1000A00081100008811000088110000881100008EC
:1000B00081100008811000088110000881100008DC
:1000C00081100008811000088110000881100008CC
:1000D00081100008DD02000881100008811000086E
:1000E0008110000881100008811000080000000045
:1000F0000000000000000000000000000000000000
:0C01000000000000000000005FF808F1A3
:10010C000348044B834202D0034B03B1184770479A
:10011C0028000020280000200000000005480649A7
:10012C000B1AD90F01EBA301491002D0034B03B1F9
:10013C00184770472800002028000020000000000D
:10014C0010B5064C237843B9FFF7DAFF044B13B113
:10015C000448AFF300800123237010BD2800002059
:10016C00000000008410000808B5044B1BB10449C2
:10017C000448AFF30080BDE80840CFE70000000062
:10018C002C0000208410000870B50D4E0D4D761B10
:10019C00B61006D0002455F8043B01349847A6420B
:1001AC00F9D1094E094D00F067FF761BB61006D049
:1001BC00002455F8043B01349847A642F9D170BD90
:1001CC00C8100008C8100008CC100008C81000089F
:1001DC00844641EA000313F0030349D1403A23D388
:1001EC000B6803604B6843608B688360CB68C360AB
:1001FC000B6903614B6943618B698361CB69C36193
:10020C000B6A03624B6A43628B6A8362CB6AC3627A
:10021C000B6B03634B6B43638B6B8363CB6BC36362
:10022C0040304031403ADBD230320BD30B680360A4
:10023C004B6843608B688360CB68C36010301031AF
:10024C00103AF3D20C3205D351F8043B40F8043B7E
:10025C00043AF9D2043208D0D2071CBF11F8013B82
:10026C0000F8013B01D30B8803806046704700BF48
:10027C00082A13D38B07B1D010F00303AED0C3F10F
:10028C000403D21ADB071CBF11F8013B00F8013B39
:10029C00A4D331F8023B20F8023B9FE7043AD9D3B0
:1002AC00013A11F8013B00F8013BF9D20B780370CD
:1002BC004B7843708B788370604670477047FEE7CD
:1002CC00FEE7FEE7FEE7704708B500F0C9F808BD89
:1002DC0000B583B00A4B1B889BB20193019B13F0B2
:1002EC002E0F06D0064B9888C0B2019B13F0200F3E
:1002FC0002D103B05DF804FB00F08AF8F9E700BF07
:10030C000038014070B586B004464FF4007229499C
:10031C00294800F0A9F9012144F2050000F0DEFDA6
:10032C000021042000F03EFD4FF40073ADF81430B2
:10033C0018238DF8173003238DF816301F4D05A99F
:10034C00284600F0CBFC4FF48063ADF81430042346
:10035C008DF8173005A9284600F0C0FC0194002444
:10036C00ADF80840ADF80A40ADF80C40ADF81040BF
:10037C000C23ADF80E3005F5405501A9284600F0C8
:10038C00BBFD012240F22551284600F025FE252315
:10039C008DF8003001268DF801608DF802408DF843
:1003AC000360684600F068FC3146284600F006FE03
:1003BC0006B070BD5400002044000020000801402D
:1003CC0038B505460A4C80210A4800F024FE08B9CD
:1003DC00013CF8D12946074800F019FE044C402195
:1003EC00044800F018FE08B9013CF8D138BD00BF34
:1003FC00A08601000038014010B5044618B905E08C
:10040C000134FFF7DDFF20780028F9D110BD000082
:10041C0000B583B08DF8070001220DF107010348E8
:10042C0000F04AF903B05DF804FB00BF4400002063
:10043C0008B5024800F083F980B208BD44000020E2
:10044C0050B108B501460122044800F08EF901288C
:10045C0014BF0020012008BD00207047440000207C
:10046C00024A136801331360704700BF5802002022
:10047C0008B500F0B7FB0B4B1B680B4AA2FB032320
:10048C009B09013B4FF0E0225361084BF02183F8AC
:10049C0023100023936107231361054B01221A706B
:1004AC0008BD00BF10000020D34D621000ED00E02D
:1004BC005402002010B50446074B1B7813B1074BB0
:1004CC001A6803E0FFF7D4FFF9E700BF034B1B6882
:1004DC009B1AA342F9D310BD5402002058020020ED
:1004EC0000B583B00121042000F0F8FC0223ADF824
:1004FC00043048228DF807208DF8063001A90348F6
:10050C0000F0ECFB03B05DF804FB00BF00080140F9
:10051C0008B50221034800F03AFCB0FA80F040091B
:10052C0008BD00BF0008014030B583B00121082090
:10053C0000F0D4FC4025ADF8045010238DF80730A2
:10054C0002238DF80630054C01A9204600F0C6FBAD
:10055C002946204600F024FC03B030BD000C0140BD
:10056C0008B54021014800F019FC08BD000C014001
:10057C0008B54021014800F013FC08BD000C0140F7
:10058C0030B583B00121082000F0A8FC4FF4806541
:10059C00ADF8045010238DF8073002238DF8063087
:1005AC00054C01A9204600F099FB2946204600F095
:1005BC00F7FB03B030BD00BF000C014008B54FF491
:1005CC008061024800F0EAFB08BD00BF000C01404E
:1005DC0008B54FF48061024800F0E2FB08BD00BF93
:1005EC00000C014030B583B0FFF742FF4FF4E1300F
:1005FC00FFF788FEFFF798FFFFF7C2FFFFF770FFCA
:10060C004FF4FA70FFF756FF002514E01448FFF77B
:10061C00F3FEFFF7ADFFFFF7DBFF254604E00DF11E
:10062C000700FFF70DFFB0B9FFF702FF0028F6D166
:10063C003220FFF73FFFFFF76BFF04468542F3D0F4
:10064C000028E3D00748FFF7D7FEFFF789FFFFF735
:10065C00B5FF2546E8E79DF80700FFF7B1FEE3E795
:10066C00B01000089C100008034660B169B10AB9CB
:10067C00002070470020186058609860D8605A605D
:10068C001960012070470020704700207047034616
:10069C0070B1026872B1406868B1DA689B689A42BE
:1006AC0001D002D2981A013870479B1A1844FAE705
:1006BC0000207047002070472DE9F04198B30E469A
:1006CC0014460746D0F80080B8F1000F2FD04568CB
:1006DC0055B371B37AB3FFF7DAFF844228BF0446EF
:1006EC000CB9254620E0F8682D1AA54228BF2546EE
:1006FC002A4631464044FFF76BFDFB682B44FB60F8
:10070C00B4EB050807D1FA687B689A4215D300232D
:10071C00FB60254608E0424671193868FFF758FD22
:10072C00C7F80C80EFE700252846BDE8F0810025CE
:10073C00FAE70025F8E71546F6E72546F4E7034601
:10074C0068B102686AB1406870B1DA689B689A4215
:10075C0009D001D9D01A7047D21A10447047002022
:10076C00704700207047002070472DE9F04198B386
:10077C000E4614460746D0F80080B8F1000F2FD073
:10078C00456855B371B37AB3FFF7D9FF844228BFDC
:10079C0004460CB9254620E0B9686D1AA54228BF5D
:1007AC0025462A4641443046FFF712FDBB682B44D0
:1007BC00BB60B4EB050807D1BA687B689A4215D3C5
:1007CC000023BB60254608E0424639687019FFF7E4
:1007DC00FFFCC7F80880EFE700252846BDE8F0814C
:1007EC000025FAE70025F8E71546F6E72546F4E775
:1007FC00074B19680868B0E8F00F80F30988BFF35D
:10080C006F8F4FF0000080F311884EF00D0E704783
:10081C005C020020EFF30980BFF36F8F0D4B1A6859
:10082C0020E9F00F10602DE908404FF0500080F3E4
:10083C00118800F0FDF84FF0000080F31188BDE83E
:10084C00084019680868B0E8F00F80F30988BFF316
:10085C006F8F70475C02002008B54FF0500383F394
:10086C001188BFF36F8FBFF34F8F00F01FF828B1C3
:10087C004FF0E0234FF08052C3F8042D002383F394
:10088C00118808BD074B1B681B6823B9064B4FF03A
:10089C00FF321A607047034B1B68DB681A68024B07
:1008AC001A60704760020020D4020020F8B5554B46
:1008BC001B68002B40F09D80534B1C6801341C605E
:1008CC00C4B9524B1B681B6843B14FF0500383F300
:1008DC001188BFF36F8FBFF34F8FFEE74B4A116840
:1008EC004B4B1868106019604A4A13680133136047
:1008FC00FFF7C8FF484B1B68A34215D90025474B8F
:10090C001B68DB6A03EB83039A00454B9B58012B56
:10091C0000D90125434B1B68002B67D0424B1B6849
:10092C00002B6DD001256BE0002534E03A4B4FF0E5
:10093C00FF321A60E3E7384B1A60E0E7D968516080
:10094C003FE000219962116801391160DA6A0121D6
:10095C0091403648076839430160314902EB820205
:10096C009000084442689A609068D860466096602F
:10097C00DA6A02EB8206B0000E185E61085801308C
:10098C0002EB820296008851DA6A244B1B68DB6A00
:10099C009A4200D901251D4B1B681B68002BC5D042
:1009AC001A4B1B68DB68DB685A689442C3D35A69DC
:1009BC009868D96881609868486051681E1DB1427A
:1009CC00BCD0002159611168013911609A6A002A62
:1009DC00BCD0D869196A8160D8694860506803F145
:1009EC0018018842ADD1196A5160AAE7FFF76CFC77
:1009FC0094E70C4A136801331360FFF765FC00257C
:100A0C002846F8BDCC020020E00200206002002045
:100A1C0064020020D8020020D40200205C020020D6
:100A2C0068020020DC020020E4020020D00200203A
:100A3C00204B1B681BB1204B01221A6070471E4BC8
:100A4C0000221A601D4B1B68B3FA83F3DBB2C3F1AF
:100A5C001F0303EB83018A0019498A5842B94FF0EE
:100A6C00500383F31188BFF36F8FBFF34F8FFEE7F3
:100A7C00134903EB830082000A44506840685060BD
:100A8C0003EB830C4FEA8C020832114488420AD0E3
:100A9C0003EB83039A000A4B13445B68DA68094B37
:100AAC001A601B68704762469100054A0A44D16877
:100ABC005160EDE7CC020020E4020020D0020020BF
:100ACC00680200205C02002082B000230193009396
:100ADC002C4A136843F4803313602A4B1B6803F4CD
:100AEC0000330093019B01330193009B1BB9019BC5
:100AFC00B3F5A06FF1D1234B1B6813F4003F06D064
:100B0C0001230093009B012B04D002B070470023FB
:100B1C000093F7E71C4B1A6842F010021A601A682F
:100B2C0022F003021A601A6842F002021A60A3F55E
:100B3C0080535A685A605A685A605A6842F4806204
:100B4C005A605A6822F47C125A605A6842F4E812CD
:100B5C005A601A6842F080721A600A4B1B6813F0D4
:100B6C00007FFAD0074B5A6822F003025A605A6889
:100B7C0042F002025A60034B5B6803F00C03082B33
:100B8C00F9D1C2E7001002400020024008B5FFF77F
:100B9C009BFF08BD08B5104B1A6842F001021A60A1
:100BAC0059680E4A0A405A601A6822F0847222F47C
:100BBC0080321A601A6822F480221A605A6822F471
:100BCC00FE025A604FF41F029A60FFF7DFFF044BDE
:100BDC004FF000629A6008BD001002400000FFF860
:100BEC0000ED00E01F4B5B6803F00C03042B15D0E9
:100BFC00082B17D01BB11C4B1C4A1A6002E01A4B75
:100C0C001A4A1A60174B5B68C3F30313184AD35C78
:100C1C00DAB215490B68D3400B607047124B134A7C
:100C2C001A60EFE70F4A53685268C3F383430233E9
:100C3C0012F4803F05D10F4A02FB03F30A4A1360FA
:100C4C00E0E7084A526812F4003F05D0094A02FB5B
:100C5C0003F3054A1360D5E7044A02FB03F3024A87
:100C6C001360CFE7001002401000002000127A0041
:100C7C000000002000093D00C378FBB1154BDA6879
:100C8C00D243C2F30222C2F1040C0F2323FA02F264
:100C9C00417801FA0CF1837813400B431B01027865
:100CAC00DBB20D490A4482F80033037803F01F00CD
:100CBC005B090122824041F823207047037803F03E
:100CCC001F015B0901228A402033034941F823208C
:100CDC00704700BF00ED00E000E100E030B5CB78DC
:100CEC0003F00F02964613F0100F03D091F802E0B8
:100CFC004EEA020E0B7803B30468002301E0426154
:100D0C000133072B18D801229A40B1F800C032EAFF
:100D1C000C05F5D14FEA830C0F2505FA0CF524EAE6
:100D2C0005040EFA0CFC4CEA0404CD78282DE6D010
:100D3C00482DE5D10261E3E704600B88FF2B25D930
:100D4C004468002303E0CD78482D1CD00133072BD9
:100D5C001BD803F1080C012202FA0CF2B1F800C006
:100D6C0032EA0C05F2D14FEA830C0F2505FA0CF58B
:100D7C0024EA05040EFA0CFC4CEA0404CD78282D68
:100D8C00E1D14261DFE70261E0E7446030BD836896
:100D9C00194201D001207047002070470161704753
:100DAC004161704710B5002816DB1C4B5B68C0F323
:100DBC0003421FFA80FE00F4401CBCF5401F0ED00D
:100DCC0010F4801F1DD04FF0030C0CFA02F223EA32
:100DDC00020343F0706309E0104BDB69E7E723F093
:100DEC0070630E4C626822F07062626021B1420D39
:100DFC0012010EFA02F2134300280BDB074A536070
:100E0C0010BD420D12010EFA02F223EA020343F066
:100E1C007063EBE7014AD361F2E700BF00000140C9
:100E2C0010B4294B5B6803F00C03042B2BD0082B5C
:100E3C002CD013B1254B036001E0244B03602249F5
:100E4C004B68C3F30313224CE35CDAB20368D34060
:100E5C0043604A68C2F30222A25CD2B223FA02F2C5
:100E6C0082604A68C2F3C222A25CD2B2D340C36091
:100E7C004A68C2F3813217498A5CD2B2B3FBF2F3EF
:100E8C00036110BC7047114B0360D8E70E4A5368DE
:100E9C005268C3F38343023312F4803F04D10E4AE9
:100EAC0002FB03F30360CAE7074A526812F4003FDF
:100EBC0004D0094A02FB03F30360C0E7034A02FBB8
:100ECC0003F30360BBE700BF0010024000127A007E
:100EDC00180000201400002000093D0021B1054A33
:100EEC009369184390617047024A936923EA0000A2
:100EFC00906170470010024030B587B004460D4633
:100F0C00038A9BB2CA8823F4405313430382838918
:100F1C009BB2898828896A8901430A4323F4B05318
:100F2C0023F00C031343A381A38A9BB2AA8923F455
:100F3C0040731343A38201A8FFF772FF1D4B9C4221
:100F4C0024D0039BA28912F4004F21D103EB83031D
:100F5C0003EB83032A689200B3FBF2F3164AA2FB5D
:100F6C00031252091101642002FB1033A28912F4FE
:100F7C00004F16D11B0132330F4AA2FB0323C3F3DC
:100F8C0043130B439BB2238107B030BD049BD9E7BD
:100F9C0003EB830303EB83032A685200B3FBF2F3E6
:100FAC00DCE7DB003233044AA2FB0323C3F3421316
:100FBC000B43E7E7003801401F85EB5129B18389CA
:100FCC009BB243F400538381704783899BB223F413
:100FDC0000539BB283817047C1F3421C01F01F0187
:100FEC00012303FA01F19C4508D0BCF1020F07D094
:100FFC0014303AB103681943016070470C30F8E7BC
:10100C001030F6E7036823EA010101607047C1F371
:10101C000801818070470388194201D00120704774
:10102C0000207047DFF834D0002103E00C4B5B58F4
:10103C00435004310B480C4B42189A42F6D30B4ADE
:10104C0002E0002342F8043B094B9A42F9D3FFF724
:10105C00A1FDFFF799F8FFF7C5FA70470050002083
:10106C00D0100008000000202800002028000020DC
:10107C00E8020020FEE70000F8B500BFF8BC08BC91
:10108C009E467047F8B500BFF8BC08BC9E4670473A
:10109C0050484154204849454E20434F204C55411F
:1010AC00210D0A00446120616E20746F616E20284E
:0C10BC00686574206C7561292E0D0A0017
:0410C80075010008A6
:0410CC004D010008CA
:1010D00000000000000000000102030406070809E8
:1010E00000A24A04020406080000000001020304F2
:0810F0000102030406070809D0
:0400000508001031AE
:00000001FF
