:020000040800F2
:10000000005000206D460008411600084316000805
:1000100045160008471600084916000800000000B1
:10002000000000000000000000000000C9270008D8
:100030004B160008000000000D280008E528000805
:10004000BD460008BD460008BD460008BD46000884
:10005000BD460008BD460008BD460008BD46000874
:10006000BD460008BD460008BD460008BD46000864
:10007000BD460008BD460008BD460008BD46000854
:10008000BD460008BD460008BD460008BD46000844
:10009000BD460008BD460008BD460008BD46000834
:1000A000BD460008BD460008BD460008BD46000824
:1000B000BD460008BD460008BD460008BD46000814
:1000C000BD460008BD460008BD460008BD46000804
:1000D000BD46000855160008BD460008BD4600088C
:1000E000BD460008BD460008BD46000800000000EF
:1000F0000000000000000000000000000000000000
:0C01000000000000000000005FF808F1A3
:10010C000348044B834202D0034B03B1184770479A
:10011C0088000020880000200000000005480649E7
:10012C000B1AD90F01EBA301491002D0034B03B1F9
:10013C00184770478800002088000020000000004D
:10014C0010B5064C237843B9FFF7DAFF044B13B113
:10015C000448AFF300800123237010BD88000020F9
:10016C0000000000C046000808B5044B1BB1044950
:10017C000448AFF30080BDE80840CFE70000000062
:10018C008C000020C046000870B50D4E0D4D761B3E
:10019C00B61006D0002455F8043B01349847A6420B
:1001AC00F9D1094E094D04F085FA761BB61006D02C
:1001BC00002455F8043B01349847A642F9D170BD90
:1001CC00C4480008C4480008C8480008C4480008CF
:1001DC00844641EA000313F0030349D1403A23D388
:1001EC000B6803604B6843608B688360CB68C360AB
:1001FC000B6903614B6943618B698361CB69C36193
:10020C000B6A03624B6A43628B6A8362CB6AC3627A
:10021C000B6B03634B6B43638B6B8363CB6BC36362
:10022C0040304031403ADBD230320BD30B680360A4
:10023C004B6843608B688360CB68C36010301031AF
:10024C00103AF3D20C3205D351F8043B40F8043B7E
:10025C00043AF9D2043208D0D2071CBF11F8013B82
:10026C0000F8013B01D30B8803806046704700BF48
:10027C00082A13D38B07B1D010F00303AED0C3F10F
:10028C000403D21ADB071CBF11F8013B00F8013B39
:10029C00A4D331F8023B20F8023B9FE7043AD9D3B0
:1002AC00013A11F8013B00F8013BF9D20B780370CD
:1002BC004B7843708B78837060467047830730B5FA
:1002CC0048D0541E002A3FD00346CAB201E0013C7C
:1002DC003AD303F8012B9D07F9D1032C2DD9CDB2BC
:1002EC0045EA05250F2C45EA054536D9A4F110023F
:1002FC0022F00F0C03F1200EE6444FEA121C03F11E
:10030C00100242E9045542E9025510327245F8D107
:10031C000CF1010214F00C0F03EB021204F00F0CA1
:10032C0013D0ACF1040323F003030433134442F859
:10033C00045B9342FBD10CF003042CB1CAB21C44F5
:10034C0003F8012B9C42FBD130BD64461346002CB4
:10035C00F4D1F9E703461446BFE71A46A446E0E792
:10036C0008B410B5002A04469DB031DB4FF402737B
:10037C004FF6FF7CADF814300291069120AB15D0EE
:10038C00013A0492079202A91F9A0193ADF816C084
:10039C0000F0F6FB421C01DA8B2323600022029B47
:1003AC001A701DB0BDE8104001B07047049207925E
:1003BC0002A91F9A0193ADF816C000F0E1FB431C93
:1003CC0001DA8B2323601DB0BDE8104001B07047EB
:1003DC008B234FF0FF302360F5E700BF0CB410B552
:1003EC001E4B00291C689CB033DB4FF402734FF694
:1003FC00FF7CADF81430029006901FAB16D001397B
:10040C001E9A04910791204602A90193ADF816C0DB
:10041C0000F0B6FB421C01DA8B2323600022029B06
:10042C001A701CB0BDE8104002B0704704910791DF
:10043C0020461E9A02A90193ADF816C000F0A0FB4D
:10044C00431C01DA8B2323601CB0BDE8104002B0C2
:10045C0070478B234FF0FF302360F5E7000000203E
:10046C0020F0030110F00300C0F1000051F8043B30
:10047C0000F1040C4FEACC0C6FF000021CBF22FA06
:10048C000CF213434FF0010C4CEA0C2C4CEA0C4CC4
:10049C00A3EB0C0222EA030212EACC1204BF51F8BD
:1004AC00043B0430F4D0C2F1000102EA0102B2FABA
:1004BC0082F2C2F11F0200EBD2007047A2B330B53A
:1004CC0040EA0104A40786460B462AD004780B7830
:1004DC00A3422FD1012A0CD0844654B11CF8014FF1
:1004EC0011F8013F9C4225D16FEA0C031344C31849
:1004FC00F3D1002030BD1946DEF800407046A4F15F
:10050C00013323EA040C0B4653F8045B0EF1040E82
:10051C00AC420BD1043AECD01CF0803FE9D17046D0
:10052C001946032AE7D8D1E71046704704780B78B0
:10053C009C42D1D0E01A30BD2DE9F04F012B1D4665
:10054C0081460F469046ADF21C4D40F24781012387
:10055C0000219C464FF0FF341A4606E01946012252
:10056C00A3EB040C8B189D4210D908EB0400805CA3
:10057C0018F803608642F1D300F081804FF0010C33
:10058C0062460C4661448B189D42EED8CDF808C0EB
:10059C004FF0010C00204FF0FF366146634606E039
:1005AC0018460121A3EB060C43189D420FD908EB0A
:1005BC00010218F803E0925D9645F1D865D04FF032
:1005CC00010C61460646604443189D42EFD8013643
:1005DC0004F1010BB34502D8B346CDF808C005AB06
:1005EC000DF2144243F8045F9342FBD1002D00F04E
:1005FC00FA806C1E06AE08F1FF3208EB040001967F
:10060C0012F8011FD3432B444344904246F8213047
:10061C00F6D1029E5A46404608EB060100F09CF9C2
:10062C00002840F083800BF1FF3305938246AB1B0F
:10063C000646039309EB060E1EF80430019A52F895
:10064C00233043B3BAF1000F04D0029A9342039AB9
:10065C0038BF13464FF0000A1E447B1BB342E9D24D
:10066C0009EB070045F4006100F0F6FD07447B1B25
:10067C00B342DFD200200DF21C4DBDE8F08F944543
:10068C000ABF0122013261446CE761450ABF401880
:10069C000131012188E7D3455B4638BF5346A3425D
:1006AC0014D2591E9A1941444A4402E00133A34220
:1006BC000CD212F8010B11F801CF8445F6D0CBF116
:1006CC00010216444FF0000A1E44C6E7D345059BB1
:1006DC007DD90BEB06024A4408EB0B01CDF810B0A8
:1006EC0002E0534516D0034612F8010D11F801CD66
:1006FC0003F1010B844503F1FF30F2D05B46DDF8CA
:10070C0010B00AF1010A9A450BD8029BDDF80CA037
:10071C001E44A2E753460AF1010A9A45DDF810B0CF
:10072C00F3D970460DF21C4DBDE8F08FA5EB0B0311
:10073C005B4538BF5B4600260BF1FF32029201335A
:10074C00CBF10102039245F4006A049309EB060E07
:10075C001EF80430019A52F823306BB11E447B1BF7
:10076C009E42F3D909EB0700514600F075FD074492
:10077C007B1B9E42EAD97DE7A34513D202990BEB72
:10078C0006025B464A44414402E00133A34209D2CB
:10079C0012F8010B11F801CF8445F6D0039A1644D8
:1007AC001E44DCE7BBF1000F13D00BEB06014944F0
:1007BC0008EB0B0202E0013B43450AD0134611F84B
:1007CC00010D12F801CD8445F5D0049BC6E75B46BC
:1007DC0097E770460DF21C4DBDE8F08F01234FF0EA
:1007EC00000B0293FBE606AB4FF0FF34019310E7CE
:1007FC002DE9F0410D460978044690B0002953D0FC
:10080C006A78002A00F08380AB78002B50D0E8780F
:10081C00002800F083802B79002B57D02846FFF757
:10082C001FFE0646204646F4007100F015FD864278
:10083C005CD8FE2E00F28780801B27184022684669
:10084C00711CFFF73BFD7EB16A1E5FFA86FC9019A6
:10085C0012F8013F03F03F034033A91A6B44614483
:10086C00824203F8401CF3D1013CA35D03F03F032B
:10087C0040336B4413F8400C0444A74203D23AE0D3
:10088C004444A74237D314F806C020460CF03F0C62
:10089C000CF140030DEB030C324629461CF8408C3E
:1008AC0000F05AF80028EBD1204610B0BDE8F081DA
:1008BC00007842EA014200E00C4640EA0343611C26
:1008CC00A0B19A426078F7D1013CEDE722786AB189
:1008DC00296809BA01E099421ED0204642EA032356
:1008EC0014F8012F002AF6D1994215D00024204685
:1008FC0010B0BDE8F081BB5DB819002BF6D04FF4F9
:10090C00006100F0A9FC0744BC42ADD9EEE710B081
:10091C00BDE8F04100F03ABCC41EC5E7120442EA3F
:10092C00016242EA03230146207800E02C4640EAAB
:10093C000102651C11020028D8D0B3EB022F60789D
:10094C00F4D1023CB0E7014633462A46204610B0AB
:10095C00BDE8F041F0E500BF032A10B516D940EA16
:10096C00010C1CF0030F04460B4622D119462046FD
:10097C00D1F800E0D0F800C00433F44504F10404CD
:10098C0017D1043A032A20461946EFD8541EA2B1B7
:10099C0000F1FF3C013901E0C3180CD01CF801EF49
:1009AC0011F8012FA4EB0C039645F5D0AEEB020029
:1009BC0010BD541EECE7184610BD104610BD00BF0C
:1009CC002DE9F0478F680C469F421D46164638D8D5
:1009DC008246888910F4906F0ED13D4608682A46ED
:1009EC00314600F093FC0020A2682368D21B2B44F4
:1009FC00A2602360BDE8F0874B69096903EB4308EB
:100A0C00236808EBD878A3EB01096B1C4FEA680844
:100A1C004B444345424684BF98464246430513D552
:100A2C001146504600F054FD074608B34A4621696A
:100A3C00FFF7CEFBA38923F4906343F08003A381DB
:100A4C0007E01F460868CAE7504600F09DFD0746C0
:100A5C0050B107EB0900A8EB09032761C4F8148017
:100A6C002F46A3602060BAE75046216900F0CAFC0B
:100A7C000C23CAF80030A3894FF0FF3043F0400339
:100A8C00A381B7E72DE9F04F9368914683B0002B13
:100A9C006ED0176880460C4608688D68083744E0AD
:100AAC00B4F80CC01CF4906F2ED0D4E90413451A82
:100ABC0003EB430303EBD373AA194FEA630A531CEA
:100ACC005345524684BF9A4652461CF4806F36D02A
:100ADC001146404600F0FCFC00283AD02A46216919
:100AEC000190FFF775FBA289019B22F4906242F002
:100AFC008002A2815819AAEB0505A560C4F814A0C0
:100B0C003546B246236120605946524600F0FEFB42
:100B1C00D9F80830A16820684D1B50449E1BA56075
:100B2C002060C9F808601EB3083757E902B6002EDA
:100B3C00FAD0B542AA46B3D93546B246E4E74046A8
:100B4C0000F022FD03460028D4D14046216900F074
:100B5C0059FC0C2300224FF0FF30C8F80030A38959
:100B6C0043F04003A381C9E9012203B0BDE8F08F33
:100B7C0000231846C9F8043003B0BDE8F08F00BF5D
:100B8C002DE9F04F1C468B890F461D068046924678
:100B9C009DB003D50B69002B00F0F3800023099363
:100BAC00302320228DF82A309AF800300394012546
:100BBC007B4C8DF82920002B76D0D14603E019F818
:100BCC00013F002B79D0252BF9D1B9EB0A0B77D14A
:100BDC0099F80020002A67D000234FF0FF3209F16A
:100BEC000109CDE90523049307938DF853301A932B
:100BFC0004E0001B05FA00F018430490CA460522D5
:100C0C00204619F8011B00F039FB049B0028F0D199
:100C1C00D80644BF20228DF85320190748BF2B2239
:100C2C009AF8001048BF8DF853202A2956D1039A00
:100C3C0011680432002903927EDB07919AF80110A7
:100C4C000AF1010A2E295BD0DFF85891032248469D
:100C5C0000F014FB48B14022049BA0EB090002FAFF
:100C6C0000F003430AF1010A04931AF8011B06224F
:100C7C004D488DF8281000F001FB002862D04B4B3A
:100C8C00002B52D003A900913A464046484B04A988
:100C9C00AFF300800646721C06D0099B33440993BF
:100CAC009AF80030002B88D1BB895B064CBF4FF003
:100CBC00FF3009981DB0BDE8F08FB9EB0A0BF3D0EB
:100CCC005B46524639464046FFF77AFE0130EBD080
:100CDC00099B99F800205B4409937BE7A1F1300252
:100CEC00092AAFD8079B1AF8011F03EB830302EB09
:100CFC004303A1F13002092AF5D92E290793A3D178
:100D0C009AF801102A2927D1039B0AF102001A68CC
:100D1C000433002A0393B8BF4FF0FF339AF8021044
:100D2C0005928246B8BF05938EE7039B073323F0E9
:100D3C00070308330393B0E7494243F002030791DA
:100D4C0004937BE703A900913A464046184B04A94B
:100D5C0000F0C6F806469EE70023A1F13002092AEE
:100D6C000AF1010A05933FF66FAF1AF8011F03EB66
:100D7C00830302EB4303A1F13002092AF5D9059351
:100D8C0062E7402100F0A4FB3860386110B14023C9
:100D9C007B6103E70C234FF0FF30C8F8003089E784
:100DAC00884800089048000894480008000000009B
:100DBC00CD0900082DE9F04791461E460A698B685B
:100DCC000C469A42B8BF1A46C9F8002091F8433035
:100DDC000546DDF8208013B10132C9F800202268E5
:100DEC0091065DD5D9F800300233C9F8003022687D
:100DFC0012F0060F11461ED1E168CB1A002BD8BF9A
:100E0C00114618DD002704F1190A06E0D9F8003064
:100E1C00E268A2EB030CBC450CDD012352463146C3
:100E2C002846C047013007F10107EFD14FF0FF30E2
:100E3C00BDE8F087216894F84330003B18BF0123CC
:100E4C008A060AD53021E21882F8431094F845102E
:100E5C005A1C2244023382F843103146284604F1CE
:100E6C004302C0470130E1D0236803F00603042B92
:100E7C001DD0A3682269934225DD00279B1A1F44CD
:100E8C0004F11A09002401E0BC421CDA01234A4691
:100E9C0031462846C047013004F10104F4D1C5E7BE
:100EAC0012F0060F12D0003B18BF0123D5E7D9F87A
:100EBC000030E1682269C91AA36821EAE1779342FC
:100ECC00DCDC0029DCDC0020BDE8F087E168D9F827
:100EDC000030CB1A002BD8BF114693DCABE700BF18
:100EEC002DE9F04317460A7E85B00C460646984617
:100EFC000C9D01F1430C002A33D0A2F15803D9B256
:100F0C00202967D8202B65D8DFE813F0DD006400BA
:100F1C0064006400640064006400640064006400A5
:100F2C006400A3006E0064006400640064006E0042
:100F3C00640064006400640021007F00BF00640052
:100F4C006400AE0064007F0064006400E400236869
:100F5C001A0640F102812B686269191D29601B6811
:100F6C001A600023E14623613B4621463046CDF80A
:100F7C00008003AAFFF71EFF013020D04A463946F5
:100F8C0030462369C047013019D02368E0689B07BD
:100F9C00039919D5431A002B16DD002504F1190904
:100FAC0004E0E0680399431AAB420DDD01234A4685
:100FBC0039463046C047013005F10105F1D14FF0FB
:100FCC00FF3005B0BDE8F0838842B8BF084605B0D5
:100FDC00BDE8F083012384F8422004F14209236127
:100FEC00002384F84330BFE72368190602D45A065D
:100FFC0000F1BF8029680A68043129601146002A73
:10100C006ADB0A25DFF87CE110E02368180640F162
:10101C009A802B68191D296019686F2A0CBF082546
:10102C000A25DFF860E1002384F843306268002A67
:10103C00A2607DDB236823F004032360002959D1CF
:10104C00002A77D1E146082D63D0ACEB090323616C
:10105C008AE701222B6804F14209196804332B60DA
:10106C0084F842102261BBE72B6800211A1D2A600C
:10107C00D3F800906268484600F000F900287FD051
:10108C00A0EB090060602061AAE7236843F020030D
:10109C0023607822DFF8F0E084F845202A68111DDF
:1010AC002960190642D45D0640D51188D80744BF83
:1010BC0043F020032360002943D12368102523F03B
:1010CC0020032360AFE75823DFF8B8E084F84530FD
:1010DC002368E3E72368DCE72D2284F84320626869
:1010EC004942002AA26002DB23F0040323600A2594
:1010FC00DFF890E0E146B1FBF5F30A4605FB13106F
:10110C0019461EF80030AA4209F8013DF3D2082D09
:10111C009BD12368D90798D5626823699A4294DCDD
:10112C00302309F1FF3989F800308EE71168BDE7EB
:10113C000029DFD19EF8003004F1420984F84230D6
:10114C0081E710256FE713F0400F2B6803F10401C2
:10115C0029600CBF196819885FE713F0400F2B68E2
:10116C00626903F1040129601B6814BF1A801A60BC
:10117C00F7E62A68B2F9001004322A600A463EE704
:10118C00606880E79C480008B048000811F0FF0137
:10119C00034644D0820732D110B5046841EA012ECF
:1011AC004EEA0E4E8EEA0402A2F1013323EA020348
:1011BC00A4F1013222EA0402134313F0803F0FD151
:1011CC0050F8044F84EA0E0CA4F10133ACF1013257
:1011DC0023EA040322EA0C02134313F0803FEFD0FE
:1011EC00037823B936E010F8013F002B32D0994236
:1011FC00F9D110BD8A4211D09A071846CCD01846A6
:10120C0013F8012B002AF5D11046704799071846A0
:10121C0007D0184602780133002AF7D170478207AD
:10122C00F7D10268A2F1013323EA020313F0803FE5
:10123C0008D150F8042FA2F1013323EA020313F072
:10124C00803FF6D00378002BE8D010F8013F002B3C
:10125C00FBD17047184610BD71B1034600EB010C71
:10126C0001E0634506D01A46117801330029F8D104
:10127C00101A7047181A7047084670475FFA81FCBD
:10128C00810710D00346511E2AB90AE09A07184666
:10129C000AD0013905D3184613F8012B6245F5D154
:1012AC00704700207047114603290CD80029F8D04C
:1012BC000346014401E08B42F3D0184613F8012B8E
:1012CC006245F8D1ECE7024610B54CEA0C2444EA2E
:1012DC0004441046036804326340A3F1013E2EEA35
:1012EC00030313F0803F04D1043903291046F0D8CE
:1012FC0051B10346014401E08B4205D0184613F866
:10130C00012B6245F8D110BD002010BD88420DD9CB
:10131C008B1883420AD900EB020CBAB1624613F85F
:10132C0001CD994202F801CDF9D170470F2A0ED8A0
:10133C00034602F1FF3C4AB10CF1010C013B8C4419
:10134C0011F8012B614503F8012FF9D1704740EAE0
:10135C0001039B074FD1A2F1100370B501F1200CD2
:10136C0023F00F0501F1100E00F11004AC441B0921
:10137C005EF8105C0EF1100E44F8105C5EF81C5C0C
:10138C00103444F81C5C5EF8185C44F8185C5EF889
:10139C00145CE64544F8145CEAD1013312F00C0FEE
:1013AC0001EB031102F00F0400EB031327D08E4660
:1013BC00043C24F003064FEA940C1E441C1F5EF8F8
:1013CC00045B44F8045FB442F9D10CF1010402F05F
:1013DC00030203EB840301EB840102F1FF3C4AB1ED
:1013EC000CF1010C013B8C4411F8012B614503F805
:1013FC00012FF9D170BD034602F1FF3C9CE7224658
:10140C00EBE700BF002952D038B551F8043C0C1F53
:10141C00002BB8BFE418054600F0F0F82B4A13680F
:10142C00002B45D0A3420CD921686018834228D0E8
:10143C00636028461460BDE8384000F0E1B8A34270
:10144C000FD81A465B68002BF9D1116850188442EA
:10145C001DD034D3636054602846BDE8384000F09A
:10146C00CFB811685018A04215D028D82168601840
:10147C008342EFD118685B680144C4E900135460DF
:10148C00EAE718685B680144C4E90013D1E72368F4
:10149C0019441160E0E72068014450188342116040
:1014AC00DAD1D3E900030144C2E90013D4E7704751
:1014BC00284663601460BDE8384000F0A1B80C23E6
:1014CC0028462B60BDE8384000F09AB8A4000020F4
:1014DC00F8B5CD1C25F0030508350C2D38BF0C25AF
:1014EC00002D064623DBA94221D8264F00F086F8B2
:1014FC003A6822B3144603E063682246FBB11C46EB
:10150C0023685B1BF8D40B2B15D8636894420CBF73
:10151C003B605360304600F073F804F10B00231D60
:10152C0020F00700C21A01D01B1AA350F8BD0C23DF
:10153C0000203360F8BD23601C442560EAE779681D
:10154C00D1B12946304600F047F8431C01460CD077
:10155C00C41C24F00304A04205D03046611A00F0EC
:10156C003BF8013001D02560D4E70C2330463360C2
:10157C0000F046F80020F8BD304600F02DF87860F9
:10158C00DFE700BFA4000020F8B51446F9B1CAB1DA
:10159C0006460D4600F036F8A04202D32F463846D8
:1015AC00F8BD21463046FFF793FF07460028F6D0DA
:1015BC0022462946FEF70CFE30462946FFF722FF4D
:1015CC003846F8BD2746FFF71DFF3846F8BD1146D3
:1015DC00BDE8F840FFF77CBF002238B5064D044645
:1015EC0008462A6000F018F8431C00D038BD2B6860
:1015FC00002BFBD0236038BDAC000020704700BF2F
:10160C00704700BF51F8040C0028A0F10400BCBFC7
:10161C000B58C018704700BF044A05491368002BCB
:10162C0008BF0B461844106018467047B0000020E5
:10163C00242E00207047FEE7FEE7FEE7FEE770472A
:10164C0008B500F0C1F808BD00B583B00A4B1B8883
:10165C009BB20193019B13F02E0F06D0064B98887A
:10166C00C0B2019B13F0200F02D103B05DF804FB54
:10167C0000F08AF8F9E700BF0038014070B586B079
:10168C0004464FF400722949294800F083FD0121DA
:10169C0044F2050002F040FF0021042002F096FE07
:1016AC004FF40073ADF8143018238DF81730032362
:1016BC008DF816301F4D05A9284602F023FE4FF475
:1016CC008063ADF8143004238DF8173005A9284633
:1016DC0002F018FE01940024ADF80840ADF80A4061
:1016EC00ADF80C40ADF810400C23ADF80E3005F5FC
:1016FC00405501A9284602F01DFF012240F2255158
:10170C00284602F087FF25238DF8003001268DF83E
:10171C0001608DF802408DF80360684602F014FDFC
:10172C003146284602F068FF06B070BDC4000020A8
:10173C00B40000200008014038B505460A4C802151
:10174C000A4802F086FF08B9013CF8D1294607483F
:10175C0002F07BFF044C4021044802F07AFF08B9E8
:10176C00013CF8D138BD00BFA08601000038014013
:10177C0010B5044618B905E00134FFF7DDFF2078F9
:10178C000028F9D110BD000000B583B08DF807001A
:10179C0001220DF10701034800F024FD03B05DF8B0
:1017AC0004FB00BFB400002050B108B50146012273
:1017BC00044800F070FD012814BF0020012008BD72
:1017CC0000207047B4000020024A136801331360F4
:1017DC00704700BFC4020020014B1868704700BF5F
:1017EC00C402002030B587B001214FF4017002F023
:1017FC0093FE4FF4004002F027FE0125ADF8145083
:10180C0000248DF8174005A9144802F07BFD0094C4
:10181C008DF804408DF805404FF460230293039437
:10182C008DF810500E4C6946204602F0BFFC29463C
:10183C00204602F0E1FC204602F0E9FC084802F0E8
:10184C00EBFC0028FAD1064802F0EEFC044802F04A
:10185C00F0FC0028FAD107B030BD00BF00080140F1
:10186C000024014070B50024264616E00D4D0523DA
:10187C0001220021284602F0EFFC0121284602F04B
:10188C00E0FC0221074802F036FD0028F9D005489B
:10189C0002F02EFD06440134E4B2032CE6D9C6F363
:1018AC008F0070BD00240140A0F164039BB240F690
:1018BC003C72934201D8014B1880704764000020A1
:1018CC00014B1888704700BF6400002008B5FFF773
:1018DC00C9FF00F5E17040F6D863984200D918466C
:1018EC00014B188008BD00BF6400002000B583B018
:1018FC000121042002F010FE0223ADF8043048222E
:10190C008DF807208DF8063001A9034802F0FAFC87
:10191C0003B05DF804FB00BF0008014008B50221CC
:10192C00014802F048FD08BD0008014008B502213D
:10193C00034802F040FDB0FA80F0400908BD00BF3A
:10194C000008014030B583B00121082002F0E4FD0D
:10195C004025ADF8045010238DF8073002238DF884
:10196C000630054C01A9204602F0CCFC2946204645
:10197C0002F02AFD03B030BD000C014008B5402137
:10198C00014802F01FFD08BD000C014008B54021C4
:10199C00014802F019FD08BD000C014030B583B0C0
:1019AC000121082002F0B8FD4FF48065ADF8045019
:1019BC0010238DF8073002238DF80630054C01A951
:1019CC00204602F09FFC2946204602F0FDFC03B0A5
:1019DC0030BD00BF000C014008B54FF480610248D7
:1019EC0002F0F0FC08BD00BF000C014008B54FF43C
:1019FC008061024802F0E8FC08BD00BF000C014009
:101A0C0000B586464B68002000E001338A689A4294
:101A1C000DDD1EF803C0ACF13002D2B2092AF4D8A5
:101A2C0000EB8000ACF1300C0CEB4000EDE75DF806
:101A3C0004FB0B78032B01D00020704770B50646D1
:101A4C000C4615461046FEF70BFDA2686368D21AC9
:101A5C00904201D0002070BD2946F018FEF72EFDF3
:101A6C0008B10020F7E70120F5E700002DE9F0436D
:101A7C008FB01E4B0FCB0EAC04E90F001C4B1B7828
:101A8C00032B30D804EB830353F8109CFFF7EAFECA
:101A9C000646174CA77894F80380FFF73FFF0546DE
:101AAC00FFF70EFF23796279A16AD4F82CE0246B3E
:101ABC000994104CCDF820E00791CDF818900592C0
:101ACC000493039002960195CDF800803B460A4A98
:101ADC004FF480712046FEF781FC2046FFF748FE4C
:101AEC000FB0BDE8F083DFF81490CFE7D8460008BC
:101AFC00C8020020800300200C470008E8460008BC
:101B0C002DE9F04FD7B0044653A800F02FFE204625
:101B1C00FEF7A6FC02461423009303AB214653A800
:101B2C0000F0D2FC071E03DB9DF80C30012B02D019
:101B3C0057B0BDE8F08FFFF74FFE814601254FF0FF
:101B4C00000808E0013503AB03EB05112046FFF755
:101B5C0057FF80460135BD4211DA03AB03EB051686
:101B6C009E4A31462046FFF764FF0028EAD19C4A82
:101B7C0031462046FFF75DFF0028EBD0E2E7012558
:101B8C004FF0000B0CE0012322E0012320E0424641
:101B9C00944B1A62934B03225A701A70D346013538
:101BAC00BD4280F2138103AB03EB05168E4A31461E
:101BBC002046FFF73EFF8246D8B1013503AB03EB5D
:101BCC0005135B68E35C312BDFD0742BDBD0002377
:101BDC00844A13713BB1FFF7D1FEB8F1000FD6D098
:101BEC0008EB0902D4E7FFF7D1FE7E4B00221A6204
:101BFC00D0E77E4A31462046FFF71BFF28B97C4AC6
:101C0C0031462046FFF715FF48B3013503AB03EB14
:101C1C0005135B68E35C312B17D0742B13D00023B6
:101C2C00704A5371ABB1FFF7D7FEB8F1000F0ED06D
:101C3C0008EB09026B4B5A626A4B03225A701A70FA
:101C4C004FF0010BABE70123EAE70123E8E742463B
:101C5C00F0E7FFF7CBFE634B00225A62ECE7654AD4
:101C6C0031462046FFF7E5FE824688B1013503ABCD
:101C7C0003EB05112046FFF7C3FEA0F5FA724EF6F2
:101C8C006C039A4200F29C80564B9862D34686E7CE
:101C9C00594A31462046FFF7CCFE824688B10135C1
:101CAC0003AB03EB05112046FFF7AAFEA0F13202AD
:101CBC0040F29E739A4200F285804A4BD862D3461A
:101CCC006DE74E4A31462046FFF7B3FE824680B19F
:101CDC00013503AB03EB05112046FFF791FEA0F194
:101CEC00640242F2AC639A426ED83E4B1863D34600
:101CFC0055E7434A31462046FFF79BFE28B9414A37
:101D0C0031462046FFF795FEA8B1013503AB03EB36
:101D1C0005112046FFF774FEA0F1640240F63C73F7
:101D2C009A4202D94FF0010B39E780B2FFF7BCFDA4
:101D3C004FF0010B33E7344A31462046FFF779FE6A
:101D4C0028B9324A31462046FFF773FE28B1FFF717
:101D5C00BDFD01354FF0010B21E72D4A31462046E0
:101D6C00FFF767FE20B92A492046FEF741FDE0B196
:101D7C0028492046FEF73CFDA8B11A4E00233362D9
:101D8C0073624FF0010B86F806B0737033703371C9
:101D9C007371FFF7FBFDFFF729FEC6F80890C6F834
:101DAC001490C6F818900135F9E61B4A31462046C6
:101DBC00FFF73FFE00283FF4F2AE01358346EEE616
:101DCC00D346ECE6D346EAE6D346E8E6BBF1000F91
:101DDC003FF4AEAEFFF74AFEAAE600BFA0470008EC
:101DEC00A8470008C8020020B4470008B8470008FC
:101DFC00C0470008C8470008D4470008E04700085F
:101E0C00EC470008F8470008084800081848000884
:101E1C00244800082C4800083448000810B582B04B
:101E2C0002E0134B1B88A3B90DF10700FFF7BCFCB4
:101E3C00D8B19DF807300A2BF3D00D2BF1D00C4AFA
:101E4C0012887E2A0DD8501C0949088009498B54E8
:101E5C00EAE708480024C454FFF752FE044B1C80E8
:101E6C00E2E7034B00221A80DEE702B010BD00BF90
:101E7C007C030020FC02002010B5154C34220021FC
:101E8C002046FEF71BFAFFF75DFDFFF787FDFFF716
:101E9C002DFDFFF7A7FCFFF779FDFFF7A7FD40F637
:101EAC00B833A3629623E3624FF496732363012342
:101EBC00A3710023E361FFF78FFCA060E060206159
:101ECC006061A0610348FFF753FCFFF7CFFD10BD25
:101EDC00C80200203848000870B5FFF77DFC0446A6
:101EEC00FFF79CFFFFF722FD944DA870FFF7BAFC9B
:101EFC000646FFF7E5FCB0428CBF00200120E870DD
:101F0C006E882A786B789A4209D02B70AC60002BC3
:101F1C0043D0022B4DD0012B56D0032B57D0874BDF
:101F2C001B78032B56D0854B1B6A0BB1A34278D977
:101F3C00824B5B6A0BB1A3427CD9002E00F09080DF
:101F4C007E4B5C619C611B78002B7CD17B4B01220E
:101F5C005A707A4B1A785B789A420ED0774A137083
:101F6C009460002B00F09280022B00F09C80012BDF
:101F7C0000F0A480032B00F0A480704B1B78002B86
:101F8C0000F0A280022B00F0BB806C4BDB68E31AE4
:101F9C00B3F5FA6F80F0CD8070BD00222A716A71A2
:101FAC002A626A62FFF7F2FCFFF720FDFFF75EFD85
:101FBC00B5E7624B01221A715A71FFF7DFFCFFF78C
:101FCC000BFDFFF753FDAAE7FFF750FDA7E7FFF75F
:101FDC004DFDA4E7594B1B6A0BB1A3420FD9574BCC
:101FEC005B6A0BB1A34213D9544BDB68E31AB3F50C
:101FFC00FA6FD1D3514BDC60FFF738FDCCE74F4B78
:10200C0000221A621A71FFF7C1FCFFF72FFDE6E7F9
:10201C004A4B00225A625A71FFF7E8FCFFF726FD83
:10202C00E2E7464B00221A621A71FFF7AFFCFFF78A
:10203C001DFD7DE7414B00225A625A71FFF7D6FC19
:10204C00FFF714FD79E7012B83D13C4A9368E31A1F
:10205C00126B9342FFF47DAF384B02225A7078E733
:10206C00364B1B78012B0DD0022B7FF472AF334A09
:10207C009369E31A926A9342FFF46BAF2F4B0022E1
:10208C005A7066E72D4B00225A7062E71346002205
:10209C001A715A711A625A62FFF778FCFFF7A6FCA4
:1020AC00FFF7E4FC69E7254B01221A715A71FFF71F
:1020BC0065FCFFF791FCFFF7D9FC5EE7FFF7D6FC58
:1020CC005BE7FFF7D3FC58E71C4B1B7913B11B4B99
:1020DC001B6A7BB1194B5B79002B3FF456AF174B46
:1020EC005B6A002B7FF451AF144B00225A71FFF73F
:1020FC007DFC4AE7114B00221A71FFF747FCE9E718
:10210C000E4A1369E31AD26A9342FFF43EAF0B4AAC
:10211C001461137983F001031371537123B1FFF729
:10212C002DFCFFF759FC30E7FFF730FCFFF75EFCA6
:10213C002BE7024BDC60FFF799FC2DE7C80200206F
:10214C0008B5FFF799FEFFF7C7FE0A2001F0B0FBB8
:10215C00F9E7000000B583B04FF4E130FFF78EFAD9
:10216C00FFF7F0FBFFF71AFCFFF7C0FBFFF73AFB9A
:10217C0000230193022200924FF400720349044899
:10218C0001F09CF901F0E2F9FEE700BF704800088D
:10219C004D210008034660B169B10AB900207047AF
:1021AC000020186058609860D8605A60196001204F
:1021BC0070470020704700207047034670B10268DA
:1021CC0072B1406868B1DA689B689A4201D002D259
:1021DC00981A013870479B1A1844FAE70020704788
:1021EC00002070472DE9F04198B30E46144607467F
:1021FC00D0F80080B8F1000F2FD0456855B371B3FB
:10220C007AB3FFF7DAFF844228BF04460CB925469F
:10221C0020E0F8682D1AA54228BF25462A463146EB
:10222C004044FDF7D5FFFB682B44FB60B4EB05087D
:10223C0007D1FA687B689A4215D30023FB602546C8
:10224C0008E0424671193868FDF7C2FFC7F80C80E8
:10225C00EFE700252846BDE8F0810025FAE70025C8
:10226C00F8E71546F6E72546F4E7034668B1026839
:10227C006AB1406870B1DA689B689A4209D001D99A
:10228C00D01A7047D21A10447047002070470020B3
:10229C007047002070472DE9F04198B30E46144664
:1022AC000746D0F80080B8F1000F2FD0456855B321
:1022BC0071B37AB3FFF7D9FF844228BF04460CB937
:1022CC00254620E0B9686D1AA54228BF25462A4646
:1022DC0041443046FDF77CFFBB682B44BB60B4EB3C
:1022EC00050807D1BA687B689A4215D30023BB60F6
:1022FC00254608E0424639687019FDF769FFC7F8B2
:10230C000880EFE700252846BDE8F0810025FAE7B4
:10231C000025F8E71546F6E72546F4E743689342AF
:10232C000CD25A1C42601A0101EB03104FF0FF3320
:10233C00836043600023C3608B5470470020704758
:10234C000170426083600023C360704770B505461E
:10235C00084619462E682C68944224D210F804C002
:10236C00BCF1090F1FD0BCF10D0F1CD0BCF10A0F32
:10237C0019D0BCF1200F16D0BCF12C0F13D0BCF12E
:10238C005D0F10D0BCF17D0F0DD0ACF1200C5FFABD
:10239C008CFCBCF15E0F02D801342C60DBE72E60A4
:1023AC006FF001000EE071B1049A2846FFF7B6FFFA
:1023BC0068B12B6832460421FFF7C2FF2B68013B42
:1023CC002B60002070BD013C2C600020FAE72E60D1
:1023DC004FF0FF30F6E7000070B505460668701C3C
:1023EC0028601FE0002B6DD0049A19462846FFF791
:1023FC0095FF30B12B68721C0321FFF7A1FF002061
:10240C000AE02E604FF0FF3006E0222807D02F287C
:10241C0005D02E606FF0010070BD04342C6028686C
:10242C00013028602C68944248D2085D2228D9D00B
:10243C005C28F4D101349442F1D22C60085D7528EB
:10244C00E7D85C28E1D35C381928E2D80FF2040CE9
:10245C005CF820F02B2400081F2400081F2400081F
:10246C001F2400081F2400081F2400082B24000828
:10247C001F2400081F2400081F2400082B24000818
:10248C001F2400081F2400081F2400081F24000814
:10249C001F2400081F2400081F2400082B240008F8
:1024AC001F2400081F2400081F2400082B240008E8
:1024BC001F2400082B240008272400082E606FF02E
:1024CC000200A9E70020A7E72DE9F04383B00546F9
:1024DC00884617461E46DDF828908CE07B2C23D0CE
:1024EC0018D97D2C1AD0CDF8009033463A46414687
:1024FC002846FFF72BFF0028C0F22E81AB68B3F102
:10250C00FF3F75D0002E73D006EB0313DA6801324F
:10251C00DA606DE05B2C07D05D2CE4D17D2C21D0F2
:10252C0002246B68013B20E04A4631462846FFF7FF
:10253C00F5FE0246002800F01281AB68B3F1FF3FB4
:10254C0004D006EB0313D9680131D9607B2C07D07A
:10255C00022313702B6853606B68013BAB6047E040
:10256C000123F6E70124DCE7013B002B12DB06EB31
:10257C0003104168B1F1FF3FF6D08168B1F1FF3F24
:10258C00F2D10178A14240F0ED80013282604FF02F
:10259C00FF32AA60B3F1FF3F03D16FF00100DBE023
:1025AC00013B002B24DB06EB03125168B1F1FF3F1A
:1025BC00F6D09268B2F1FF3FF2D1AB6018E0CDF8E3
:1025CC00009033463A4641462846FFF705FF00285F
:1025DC00C0F2C280AB68B3F1FF3F09D046B106EB45
:1025EC000313DA680132DA6002E06B68013BAB601E
:1025FC002B6801332B602A68BA4280F09B8018F854
:10260C0002403A2C3FF66AAF092CFFF46CAF093C40
:10261C00312C3FF668AF01A353F824F0FD250008D8
:10262C00FD250008F3240008F3240008FD2500080C
:10263C00F3240008F3240008F3240008F324000812
:10264C00F3240008F3240008F3240008F324000802
:10265C00F3240008F3240008F3240008F3240008F2
:10266C00F3240008F3240008F3240008F3240008E2
:10267C00F3240008F3240008FD250008F3240008C7
:10268C00CB250008F3240008F3240008F3240008E9
:10269C00F3240008F3240008F3240008F3240008B2
:1026AC00F3240008F3240008F1260008F3240008A2
:1026BC00F3240008F3240008F3240008F324000892
:1026CC00F3240008F3240008F3240008F324000882
:1026DC00F3240008F3240008F3240008F324000872
:1026EC00F7250008002E83D0AB68B3F1FF3F3FF411
:1026FC007FAF1B01F35C022B3FF47AAF012B3FF44D
:10270C0077AF6A68013A00E0013A002AFFF670AF31
:10271C00130106EB0211F35C013BDBB2012BF3D886
:10272C004B68B3F1FF3FEFD08B68B3F1FF3FEBD1B8
:10273C00AA605DE76868431E00E0013B002B0BDBE1
:10274C0006EB03125168B1F1FF3FF6D09268B2F17B
:10275C00FF3FF2D16FF0020003B0BDE8F0834FF001
:10276C00FF30F9E76FF00100F6E700BF00230360CC
:10277C0043604FF0FF3383607047000082B000234A
:10278C0001930D4B1B68B3F1FF3F08D04FF0500382
:10279C0083F31188BFF36F8FBFF34F8FFEE74FF0BA
:1027AC00500383F31188BFF36F8FBFF34F8F019BDF
:1027BC00002BFCD002B0704768000020074B196852
:1027CC000868B0E8F00F80F30988BFF36F8F4FF003
:1027DC00000080F311884EF00D0E7047E02C0020A5
:1027EC0006480068006880F3088862B661B6BFF3DB
:1027FC004F8FBFF36F8F00DF00BF000008ED00E0CC
:10280C00EFF30980BFF36F8F0D4B1A6820E9F00FBF
:10281C0010602DE908404FF0500080F3118801F052
:10282C006FF84FF0000080F31188BDE8084019687C
:10283C000868B0E8F00F80F30988BFF36F8F70471A
:10284C00E02C00204FF0807340F8043C21F0010193
:10285C0040F8081C034B40F80C3C40F8202C403846
:10286C00704700BF892700084FF0500383F311888D
:10287C00BFF36F8FBFF34F8F0B4A13680133136095
:10288C00012B00D070474FF0E023D3F8043D13F038
:10289C00FF0FF7D04FF0500383F31188BFF36F8F06
:1028AC00BFF34F8FFEE700BF68000020094B1B6889
:1028BC0043B94FF0500383F31188BFF36F8FBFF30D
:1028CC004F8FFEE7013B034A13600BB983F311886A
:1028DC00704700BF6800002008B54FF0500383F329
:1028EC001188BFF36F8FBFF34F8F00F073FE28B1C9
:1028FC004FF0E0234FF08052C3F8042D002383F3F4
:10290C00118808BD4FF0E022002313619361054B41
:10291C001B680549A1FB03139B09013B536107236A
:10292C001361704770000020D34D62104FF0E0230C
:10293C00D3F8083DD96A464A914208D04FF050036B
:10294C0083F31188BFF36F8FBFF34F8FFEE79A6B42
:10295C00404B9A4208D04FF0500383F31188BFF3D9
:10296C006F8FBFF34F8FFEE710B582B0002301933A
:10297C00394B1A78D2B28DF80220FF221A701B78CC
:10298C00DBB28DF803309DF8033003F05003334A6B
:10299C00137043B94FF0500383F31188BFF36F8F5B
:1029AC00BFF34F8FFEE79DF80330DB4313F0500F5E
:1029BC0008D04FF0500383F31188BFF36F8FBFF330
:1029CC004F8FFEE79DF8033013F0800F09D0019B69
:1029DC00013301939DF803305B00DBB28DF80330BB
:1029EC00F0E7019B082B2ED0019BC3F107031C4A77
:1029FC0013601B4A13681B02136003F4E06313603B
:102A0C009DF80230DBB2144A13704FF0E023D3F878
:102A1C00202D42F47F02C3F8202DD3F8202D42F054
:102A2C007F42C3F8202D0024C3F81C4DFFF76AFF2A
:102A3C000C4B1C60FFF7D4FE00F062FFFFF79EFE0C
:102A4C00204602B010BD064B00221A60D1E700BF31
:102A5C00C92700080D28000800E400E080040020CD
:102A6C008404002068000020064B1A6813682BB9F8
:102A7C000123036023B9D368186870470023F8E773
:102A8C00002070478804002008B541600061914225
:102A9C000CD8D21A83699A4201D3012008BD011DBA
:102AAC00094B186801F097FA0020F7E79A4201D217
:102ABC00994206D2011D054B186801F08CFA0020D2
:102ACC00ECE70120EAE700BF8C040020880400201A
:102ADC0070B504460D46164604E0A3691D44236AEE
:102AEC0020469847A1692B46324629442046FFF7D9
:102AFC00CBFF0028F1D170BD70B505460E460D4BCD
:102B0C001B68DB68DC68201D01F07EFA94F8243029
:102B1C0013F0040F07D123F0010384F82430236A47
:102B2C002046984770BD324629462046FFF7D0FF15
:102B3C00F5E700BF8804002008B505E0DB684FF01E
:102B4C00FF311868FFF7D8FF054B1B681A68002A7D
:102B5C00F4D1044A106802490860136008BD00BF34
:102B6C00880400208C04002038B5054600F02CFDAC
:102B7C000446074B1B68834205D800232B60044B8B
:102B8C001C60204638BDFFF7D7FF01232B60F6E70A
:102B9C00B804002070B582B006460C4600F00CFD5F
:102BAC0001A8FFF7E1FF019B33BB05460CB9B0420E
:102BBC0019D224B1124A12681268DAB901242246D9
:102BCC00711B104B186801F0CFF900F0C5FDA8B9C6
:102BDC004FF0E0234FF08052C3F8042DBFF34F8F1A
:102BEC00BFF36F8F0AE000F0B7FD29463046FFF7C0
:102BFC0083FF03E01C46E2E700F0AEFD02B070BDBF
:102C0C008C040020BC04002030B587B00023029354
:102C1C000393049305932DE005990498039B98471F
:102C2C0033E094F8243043F0010384F82430039B00
:102C3C00A169024619442046FFF726FFD0B194F84B
:102C4C00243013F0040F07D123F0010384F824304F
:102C5C00236A204698470DE0A3692A460399194434
:102C6C002046FFF735FFF3E794F8243023F00103F7
:102C7C0084F82430002202A92D4B186801F094F836
:102C8C00002852D0029B002BC6DB029B002BF1DBF1
:102C9C00049C002CEED0636913B1201D01F0B4F933
:102CAC0001A8FFF761FF0546029901390829E1D80F
:102CBC0001A353F821F000BF2F2C00082F2C000883
:102CCC00752C0008E92C00081B2D00082F2C00087F
:102CDC002F2C0008752C0008E92C000894F82430DF
:102CEC0043F0010384F824300399A16131B1034608
:102CFC00024601442046FFF7C7FEBBE74FF05003E6
:102D0C0083F31188BFF36F8FBFF34F8FFEE794F8F7
:102D1C00243013F0020F04D023F0010384F8243084
:102D2C00A8E7204600F09CF9A4E707B030BD00BF2F
:102D3C00BC04002000B583B001A8FFF795FE0199F3
:102D4C00FFF728FFFFF760FFF6E7000038B5FFF745
:102D5C008BFD0F4B1B6813B1FFF7A8FD38BD0D4D54
:102D6C00284601F02AF90C4C204601F026F90B4BB1
:102D7C001D600B4B1C60002210210A2000F0E9FFA3
:102D8C00034B18600028E7D0064901F0BDF8E3E7D3
:102D9C00BC04002090040020A4040020880400201F
:102DAC008C0400207848000800B583B0FFF7CEFFF4
:102DBC000D4B1B685BB10D4B019302230093002359
:102DCC004FF480720A490B4800F078FB40B94FF081
:102DDC00500383F31188BFF36F8FBFF34F8FFEE760
:102DEC0003B05DF804FB00BFBC040020C00400204D
:102DFC0080480008412D0008104A12F0070F1AD025
:102E0C00D11D21F00701C1F5205313440A460C488B
:102E1C000260002141601344083B23F0070309487A
:102E2C00036059601960991A51601360064B196060
:102E3C00064B196070474FF42053E8E7C804002094
:102E4C00D82C0020C4040020CC2C0020C82C00203E
:102E5C001E4B19461B688342FBD31C4A91420ED071
:102E6C001B4A914202D31B4A914208D94FF050039E
:102E7C0083F31188BFF36F8FBFF34F8FFEE74A6860
:102E8C0001EB020C844509D0426800EB020C63454F
:102E9C0009D00360884218D008607047406802442B
:102EAC004A600846F0E710B40B4C2468A3420AD0E1
:102EBC005B681A4442600B681B680360884200D050
:102ECC00086010BC70470460F8E77047D82C0020ED
:102EDC00C8040020C72C0020C404002070B5044690
:102EEC0070B110F1090F0AD8083414F0070307D099
:102EFC00C3F10803DA43A24223D31C4400E00024AC
:102F0C0000F05AFB4F4B1B68EBB1002CC0F28280D7
:102F1C00002C00F081804C4B1868A042C0F08B80D4
:102F2C004A4B1B684A4A934202D34A4A934216D9E7
:102F3C004FF0500383F31188BFF36F8FBFF34F8FA4
:102F4C00FEE70024DCE7FFF757FFDEE74FF0500306
:102F5C0083F31188BFF36F8FBFF34F8FFEE73B49AD
:102F6C005A68A2420AD21A6842B139498A42EDD350
:102F7C001946384B9A42E9D81346F1E7314A1268A0
:102F8C009A425AD00D680835314A954202D3314ADB
:102F9C00954208D94FF0500383F31188BFF36F8F1C
:102FAC00BFF34F8FFEE71A680A605A68A2420FD32C
:102FBC00121B102A1AD91E1916F0070F11D04FF038
:102FCC00500383F31188BFF36F8FBFF34F8FFEE76E
:102FDC004FF0500383F31188BFF36F8FBFF34F8F04
:102FEC00FEE772605C600A681A510E605A68801ABB
:102FFC001549086018490968884201D216490860C9
:10300C0042F000425A6000221A60144A13680133DD
:10301C00136002E0002500E0002500F09DFB15F098
:10302C00070F0CD04FF0500383F31188BFF36F8F51
:10303C00BFF34F8FFEE70025EFE70025EDE72846AD
:10304C0070BD00BFC4040020C82C0020D82C002068
:10305C00C8040020C72C0020CC2C0020D02C002031
:10306C00002844D038B50446A0F10805204B9D42F9
:10307C000FD3204B9D420CD850F8043C002B11DB95
:10308C004FF0500383F31188BFF36F8FBFF34F8F53
:10309C00FEE74FF0500383F31188BFF36F8FBFF33C
:1030AC004F8FFEE750F8082C42B14FF0500383F3DA
:1030BC001188BFF36F8FBFF34F8FFEE7002B00DB40
:1030CC0038BD23F0004340F8043C00F075FA54F886
:1030DC00041C094A13680B4413602846FFF7B8FE1A
:1030EC00064A13680133136000F036FBE8E77047BB
:1030FC00C8040020C72C0020C82C0020D42C002091
:10310C00074B1B681B6823B9064B4FF0FF321A6044
:10311C007047034B1B68DB681A68024B1A607047D8
:10312C00E42C0020902D002010B50446006BFFF716
:10313C0097FF2046FFF794FF10BD2DE9F04781461D
:10314C000C4617469A46DDF820800A9D9200A52170
:10315C00286BFDF7B3F82B6B07F18046013E03EBB0
:10316C00860323F007069CB14FF0000CBCF10F0F47
:10317C000BD814F80C2005EB0C0383F8342014F84E
:10318C000C3013B10CF1010CF0E7002385F843303F
:10319C00B8F1040F08D94FF0500383F31188BFF333
:1031AC006F8FBFF34F8FFEE7C5F82C80C5F84480B6
:1031BC00281D00F00DFF05F1180000F009FF2D612E
:1031CC00C8F10503AB616D62524649463046FFF7C4
:1031DC0039FB2860361AB7EBA60F08D84FF050030E
:1031EC0083F31188BFF36F8FBFF34F8FFEE7099BFB
:1031FC0003B11D60BDE8F0872DE9F04385B00646AC
:10320C000F46144698469000FFF768FE814600B3BF
:10321C007020FFF763FE0546B8B170220021FDF760
:10322C004DF8C5F8309065B10023039302950D9BC2
:10323C0001930C9B00934346224639463046FFF7D8
:10324C007CFF284605B0BDE8F0834846FFF708FF31
:10325C00E9E70546F5E7000038B5002407E004EB84
:10326C00840293000E48184400F0A7FE0134042C8D
:10327C00F5D90C4D284600F0A0FE0B4C204600F072
:10328C009CFE0A4800F099FE094800F096FE094899
:10329C0000F093FE084B1D60084B1C6038BD00BF4E
:1032AC00EC2C0020642D0020782D00209C2D00207B
:1032BC00C82D0020B42D0020E42C0020E82C002088
:1032CC0010B50446FFF7D0FA2A4A1368013313608D
:1032DC00294B1B685BB1294B1B686BB9264B1B68D0
:1032EC00DA6AE36A9A4207D8234B1C6004E0224B4B
:1032FC001C601368012B39D0214A13680133136009
:10330C00E36A01229A401F49086802430A601E4A78
:10331C0003EB830302EB83035B68A3609868E060B4
:10332C00211D41609960E36A03EB830102EB81008C
:10333C00606152F82110013103EB830342F8231032
:10334C00FFF7B4FA0D4B1B687BB10B4B1B68DA6AA9
:10335C00E36A9A4209D24FF0E0234FF08052C3F84F
:10336C00042DBFF34F8FBFF36F8F10BDFFF774FFAA
:10337C00C2E700BF502D0020E02C0020B02D002013
:10338C005C2D0020602D0020EC2C00200F4B1B68C6
:10339C00D3B110B5FFF768FA0D4BDB68DC68201D64
:1033AC0000F032FE0B4A1368013B1360074A1368A6
:1033BC00013B1360FFF77AFA2046FFF7B5FE034B8B
:1033CC001B68002BE6D110BD704700BF542D0020A8
:1033DC00C82D0020502D002008B5FFF7D7FF074B54
:1033EC001B68012BF9D94FF0E0234FF08052C3F842
:1033FC00042DBFF34F8FBFF36F8FEEE7EC2C002043
:10340C002DE9F04104460D46254B1E68254B1F68DF
:10341C00254BD3F80080254B1868043000F0F4FDE0
:10342C0050B9224B1B68DA6A012303FA02F22049D5
:10343C000B6823EA02030B60B4F1FF3F0DD0344458
:10344C001A4B1B685C60A6421DD9184B19680431D5
:10345C00404600F0C0FDBDE8F081002DEFD0154ACC
:10346C005168124B1868816018688C68C4601868C1
:10347C00043060601868043088601B685A611368F7
:10348C0001331360E7E7094B19680431384600F043
:10349C00A2FD094B1B68A342DDD9074B1C60DAE780
:1034AC00DC2D0020E42C0020E82C0020E02C002057
:1034BC00602D0020B42D0020902D002000B583B08D
:1034CC00DDF814C0CDF804C0DDF810C0CDF800C094
:1034DC00FFF792FE28B1FFF7F3FE012003B05DF871
:1034EC0004FB4FF0FF30F9E710B586B000230293D0
:1034FC000393049305930E2B09D8114AD25C03F164
:10350C001801694401F8102C0AB10133F3E71833A0
:10351C006B44002403F8104C0120002C01DD06B094
:10352C0010BD084B03EB840301930023009380220E
:10353C0002A90548FFF7C2FF0128F0D10134ECE7DE
:10354C00E84600088C2D0020E533000808B5FFF78D
:10355C00CBFF012807D0012808D0B0F1FF3F1AD0CB
:10356C00114B1B6808BDFFF71FFCF4E74FF050032D
:10357C0083F31188BFF36F8FBFF34F8F0B4B4FF05B
:10358C00FF321A600A4B01221A600A4B00221A60A1
:10359C00FFF7CCF9E4E74FF0500383F31188BFF346
:1035AC006F8FBFF34F8FFEE76C000020902D002033
:1035BC00B02D0020DC2D0020024A1368013313606B
:1035CC00704700BF582D0020014B1868704700BF92
:1035DC00DC2D0020F8B5554B1B68002B40F09D806E
:1035EC00534B1C6801341C60C4B9524B1B681B68DC
:1035FC0043B14FF0500383F31188BFF36F8FBFF3C8
:10360C004F8FFEE74B4A11684B4B186810601960DE
:10361C004A4A136801331360FFF772FD484B1B686D
:10362C00A34215D90025474B1B68DB6A03EB8303C8
:10363C009A00454B9B58012B00D90125434B1B6825
:10364C00002B67D0424B1B68002B6DD001256BE023
:10365C00002534E03A4B4FF0FF321A60E3E7384B69
:10366C001A60E0E7D96851603FE000219962116867
:10367C0001391160DA6A01219140364807683943F3
:10368C000160314902EB82029000084442689A6062
:10369C009068D86046609660DA6A02EB8206B000E9
:1036AC000E185E610858013002EB820296008851B8
:1036BC00DA6A244B1B68DB6A9A4200D901251D4B40
:1036CC001B681B68002BC5D01A4B1B68DB68DB68BA
:1036DC005A689442C3D35A699868D96881609868CB
:1036EC00486051681E1DB142BCD00021596111685F
:1036FC00013911609A6A002ABCD0D869196A8160B4
:10370C00D8694860506803F118018842ADD1196A34
:10371C005160AAE7FDF794FF94E70C4A1368013354
:10372C001360FDF78DFF00252846F8BD582D0020AD
:10373C00DC2D0020E42C0020E82C0020942D00200F
:10374C00902D0020E02C0020EC2C0020982D002047
:10375C00E02D0020602D002038B5FFF785F84C4B8C
:10376C001B6843B94FF0500383F31188BFF36F8F7D
:10377C00BFF34F8FFEE7464B1A68013A1A601B687D
:10378C00002B7FD1434B1B683BB900247BE0196AAB
:10379C00516015E0D968516021E000233E4A12685F
:1037AC00002A4AD03C4BDB68DB689A6AD869196AF4
:1037BC008160D8694860506803F118018842E6D0EE
:1037CC00002199621168013911605A699868D968A9
:1037DC008160986848605168181D8142DAD00021D8
:1037EC005961116801391160DA6A012191402B4C41
:1037FC002568294321602A4902EB820201EB8202EF
:10380C0052689A609468DC6060609060DA6A02EBDF
:10381C00820001EB80045C6151F82000013002EB66
:10382C00820241F82200D96A1E4A1268D26A914279
:10383C00B4D91D4A01211160B0E70BB1FFF760FC50
:10384C001A4B1C6894B9184B1C68E4B1154B1B68D7
:10385C004FF0E0234FF08052C3F8042DBFF34F8F8D
:10386C00BFF36F8F01240EE0013C07D0FFF7B2FECF
:10387C000028F9D00C4B01221A60F5E70B4B002203
:10388C001A60E0E70024FFF711F8204638BD00BFAE
:10389C00582D0020502D00209C2D0020602D002044
:1038AC00EC2C0020E02C0020E02D0020982D002096
:1038BC0010B550B94FF0E0234FF08052C3F8042DEF
:1038CC00BFF34F8FBFF36F8F10BD0446FFF774FE2D
:1038DC000A4B1B68012B08D04FF0500383F311885F
:1038EC00BFF36F8FBFF34F8FFEE700212046FFF72A
:1038FC0087FDFFF731FF0028E6D1DBE7582D0020CC
:10390C00204B1B681BB1204B01221A6070471E4BC9
:10391C0000221A601D4B1B68B3FA83F3DBB2C3F1B0
:10392C001F0303EB83018A0019498A5842B94FF0EF
:10393C00500383F31188BFF36F8FBFF34F8FFEE7F4
:10394C00134903EB830082000A44506840685060BE
:10395C0003EB830C4FEA8C020832114488420AD0E4
:10396C0003EB83039A000A4B13445B68DA68094B38
:10397C001A601B68704762469100054A0A44D16878
:10398C005160EDE7582D0020E02D0020602D002027
:10399C00EC2C0020E02C002058B110B50C46094A44
:1039AC001168183100F017FB01212046FFF728FDA4
:1039BC0010BD4FF0500383F31188BFF36F8FBFF32B
:1039CC004F8FFEE7E02C002038B5D8B18C4611465D
:1039DC0005464268104B1868C26118689468046206
:1039EC001868183060601868183090601B689D6209
:1039FC002B6801332B6009B14FF0FF3C6046FFF799
:103A0C00FFFC38BD4FF0500383F31188BFF36F8F69
:103A1C00BFF34F8FFEE700BFE02C0020C368DB68CC
:103A2C00002B4DD030B49A6AD869196A8160D86974
:103A3C004860516803F1180081424AD00021996214
:103A4C001168013911602D4A1268002A47D15A6950
:103A5C009868D9688160986848605168181D8142DF
:103A6C003AD000215961116801391160DA6A0121DB
:103A7C009140234C256829432160224902EB8202A4
:103A8C0001EB820252689A609468DC60606090601E
:103A9C00DA6A02EB820001EB80045C6151F82000D1
:103AAC00013002EB820241F82200DA6A164B1B68E5
:103ABC00DB6A9A421FD90120144B186030BC704746
:103ACC004FF0500383F31188BFF36F8FBFF34F8F09
:103ADC00FEE7196A5160B1E7D9685160C1E70C4A39
:103AEC005168D9618C681C62606088609A62116848
:103AFC0001311160D9E70020E0E700BF582D00200C
:103B0C00602D0020EC2C0020E02C0020E02D00206B
:103B1C009C2D0020034B1B680360034B1B68436008
:103B2C00704700BF942D0020DC2D0020C8B170B56B
:103B3C000C460546F1B1FEF797FE1C4B19686B68F5
:103B4C00C81A2268B2F1FF3F2BD0194E3668D5F84F
:103B5C0000C0B44517D08B4215D800232360012434
:103B6C0020E04FF0500383F31188BFF36F8FBFF346
:103B7C004F8FFEE74FF0500383F31188BFF36F8F25
:103B8C00BFF34F8FFEE7824203D80023236001244A
:103B9C0008E05B1A134423602846FFF7BBFF0024A0
:103BAC0000E00024FEF782FE204670BDDC2D0020D4
:103BBC00942D0020014B01221A607047E02D00204B
:103BCC00054B1B6833B1054B1B680BB100207047CC
:103BDC000220704701207047B02D0020582D002086
:103BEC0010B50446FEF740FEA36B23B90124FEF783
:103BFC005DFE204610BD0024F9E708B50346026CB3
:103C0C0062B10846D9681144D960D3F808C061453F
:103C1C0001D31968D960D968FCF7DAFA08BD38B550
:103C2C000546FEF721FE95F8454064B201E0013CE3
:103C3C0064B2002C0ADD6B6A43B105F12400FFF776
:103C4C00EDFE0028F3D0FFF7B5FFF0E7FF2385F872
:103C5C004530FEF72BFEFEF707FE95F8444064B2A4
:103C6C0001E0013C64B2002C0ADD2B6943B105F183
:103C7C001000FFF7D3FE0028F3D0FFF79BFFF0E70F
:103C8C00FF2385F84430FEF711FE38BD38B590B1EE
:103C9C000D460446C36B2BB1026C0021A3FB02231F
:103CAC0093B999B14FF0500383F31188BFF36F8F21
:103CBC00BFF34F8FFEE74FF0500383F31188BFF330
:103CCC006F8FBFF34F8FFEE70121EAE7FEF7CCFDC4
:103CDC002368E26B216C01FB0230A0600020A06322
:103CEC006360013A02FB0133E360FF2384F8443044
:103CFC0084F84530B5B923691BB9FEF7D7FD01200F
:103D0C0038BD04F11000FFF789FE0028F5D04FF004
:103D1C00E0234FF08052C3F8042DBFF34F8FBFF355
:103D2C006F8FEAE704F1100000F047F904F124006A
:103D3C0000F043F9E1E710B5034602980C4631B99F
:103D4C000060C36304640121FFF7A0FF10BD026093
:103D5C00F7E7F0B583B060B10C4617460546002373
:103D6C00A0FB041272B923B904FB05F010F1490F42
:103D7C000AD94FF0500383F31188BFF36F8FBFF351
:103D8C004F8FFEE70123EEE74830FFF7A7F8064612
:103D9C0038B100903B4600F1480221462846FFF717
:103DAC00CAFF304603B0F0BDF0B585B0019290B1BA
:103DBC000F460446C1B1FFF703FF064600BB019B4B
:103DCC00002B5ED04FF0500383F31188BFF36F8F3D
:103DDC00BFF34F8FFEE74FF0500383F31188BFF30F
:103DEC006F8FBFF34F8FFEE7036C002BE3D04FF0C8
:103DFC00500383F31188BFF36F8FBFF34F8FFEE730
:103E0C0000263EE039462046FFF7F7FE013DA5634C
:103E1C00236923B9FEF74AFD012005B0F0BD04F17A
:103E2C001000FFF7FBFD0028F4D04FF0E0234FF01B
:103E3C008052C3F8042DBFF34F8FBFF36F8FE9E7A8
:103E4C00FEF734FD0020E8E702A8FFF763FE012629
:103E5C0021E0002384F8443029E0002384F8453025
:103E6C002BE02046FFF7DBFEFFF776FC09E020464F
:103E7C00FFF7D5FEFFF770FC2046FFF7B1FE0028D8
:103E8C003FD1FEF7F1FCA56B002DBBD1019B002BA4
:103E9C00D6D0002ED8D0FEF709FDFFF78DFBFEF72C
:103EAC00E3FC94F844305BB2B3F1FF3FD1D094F80B
:103EBC0045305BB2B3F1FF3FCFD0FEF7F7FC01A961
:103ECC0002A8FFF733FE0028D1D12046FFF788FE69
:103EDC000028C6D0019904F12400FFF75DFD2046AF
:103EEC00FFF79DFEFFF738FC0028CAD14FF0E02306
:103EFC004FF08052C3F8042DBFF34F8FBFF36F8F79
:103F0C00BFE7002089E7000030B110B40C46014631
:103F1C008CB10020034611E04FF0500383F311885D
:103F2C00BFF36F8FBFF34F8FFEE70E4800EBC3005C
:103F3C0008B10460416010BC70470133072BF7D8FF
:103F4C00084A02EBC30252688A42EED00028F4D130
:103F5C00044A52F83320002AEFD1024800EBC30088
:103F6C00EBE700BFE42D002070B504460D46164665
:103F7C00FEF77AFC94F844305BB2B3F1FF3F0DD0FE
:103F8C0094F845305BB2B3F1FF3F0BD0FEF78EFCDB
:103F9C00A36B5BB12046FFF742FE70BD002384F893
:103FAC004430EDE7002384F84530EFE732462946EC
:103FBC0004F12400FFF708FDECE700F1080343606F
:103FCC004FF0FF328260C3600361002303607047CF
:103FDC0000230361704730B40D68B5F1FF3F11D079
:103FEC0000F108031C465B681A68AA42FAD9636898
:103FFC004B6099608C6061600861036801330360F9
:10400C0030BC70470469F2E70369416882688A60D2
:10401C00416851605A68824205D0002202611868DA
:10402C0001381860704782685A60F6E782B0002346
:10403C00019300932C4A136843F4803313602A4B8A
:10404C001B6803F400330093019B01330193009B25
:10405C001BB9019BB3F5A06FF1D1234B1B6813F473
:10406C00003F06D001230093009B012B04D002B02B
:10407C00704700230093F7E71C4B1A6842F01002BC
:10408C001A601A6822F003021A601A6842F00202DF
:10409C001A60A3F580535A685A605A685A605A6875
:1040AC0042F480625A605A6822F47C125A605A6850
:1040BC0042F4E8125A601A6842F080721A600A4B95
:1040CC001B6813F0007FFAD0074B5A6822F00302EA
:1040DC005A605A6842F002025A60034B5B6803F064
:1040EC000C03082BF9D1C2E700100240002002405B
:1040FC0008B5FFF79BFF08BD08B5104B1A6842F0D6
:10410C0001021A6059680E4A0A405A601A6822F075
:10411C00847222F480321A601A6822F480221A60A7
:10412C005A6822F4FE025A604FF41F029A60FFF79D
:10413C00DFFF044B4FF000629A6008BD0010024094
:10414C000000FFF800ED00E0C378FBB1154BDA6816
:10415C00D243C2F30222C2F1040C0F2323FA02F25F
:10416C00417801FA0CF1837813400B431B01027860
:10417C00DBB20D490A4482F80033037803F01F00C8
:10418C005B090122824041F823207047037803F039
:10419C001F015B0901228A402033034941F8232087
:1041AC00704700BF00ED00E000E100E010B4426891
:1041BC0022F4702222F480720B6891F804C043EA56
:1041CC000C231343436083680A4A1A40CB688C68FB
:1041DC00234391F805C043EA4C0313438360C36A3D
:1041EC0023F470030A7C013AD2B243EA0253C3624D
:1041FC0010BC7047FDF7F1FF21B1836843F0010358
:10420C0083607047836823F0010383607047836881
:10421C0043F0080383607047836813F0080F01D0E4
:10422C000120704700207047836843F004038360CB
:10423C007047836813F0040F01D0012070470020F1
:10424C00704721B1836843F4A0038360704783688F
:10425C0023F4A0038360704710B509291DD9C468E5
:10426C00A1F10A0C0CEB4C0C4FF0070E0EFA0CFEE5
:10427C0024EA0E0403FA0CF32343C360062A1BD86A
:10428C00436B013A02EB82021F24944023EA04039D
:10429C0001FA02F21A43426310BD046901EB410EAC
:1042AC004FF0070C0CFA0EFC24EA0C0C03FA0EF37C
:1042BC004CEA03030361E1E70C2A0CD8036B073AC1
:1042CC0002EB82021F24944023EA040301FA02F257
:1042DC001A430263E0E7C36A0D3A02EB82021F2421
:1042EC00944023EA040301FA02F21A43C262D3E7B0
:1042FC00C06C80B270470368194201D0012070472E
:10430C000020704730B5CB7803F00F02964613F0BF
:10431C00100F03D091F802E04EEA020E0B7803B3B3
:10432C000468002301E042610133072B18D80122F5
:10433C009A40B1F800C032EA0C05F5D14FEA830C73
:10434C000F2505FA0CF524EA05040EFA0CFC4CEAD0
:10435C000404CD78282DE6D0482DE5D10261E3E7A1
:10436C0004600B88FF2B25D94468002303E0CD782B
:10437C00482D1CD00133072B1BD803F1080C01224C
:10438C0002FA0CF2B1F800C032EA0C05F2D14FEA95
:10439C00830C0F2505FA0CF524EA05040EFA0CFC27
:1043AC004CEA0404CD78282DE1D14261DFE70261AB
:1043BC00E0E7446030BD8368194201D001207047AA
:1043CC0000207047016170474161704710B50028AB
:1043DC0016DB1C4B5B68C0F303421FFA80FE00F433
:1043EC00401CBCF5401F0ED010F4801F1DD04FF0A8
:1043FC00030C0CFA02F223EA020343F0706309E0A7
:10440C00104BDB69E7E723F070630E4C626822F017
:10441C007062626021B1420D12010EFA02F2134376
:10442C0000280BDB074A536010BD420D12010EFA37
:10443C0002F223EA020343F07063EBE7014AD36113
:10444C00F2E700BF00000140034A536823F44043E5
:10445C0003435360704700BF0010024010B4294B57
:10446C005B6803F00C03042B2BD0082B2CD013B15E
:10447C00254B036001E0244B036022494B68C3F3D6
:10448C000313224CE35CDAB20368D34043604A68FE
:10449C00C2F30222A25CD2B223FA02F282604A6810
:1044AC00C2F3C222A25CD2B2D340C3604A68C2F348
:1044BC00813217498A5CD2B2B3FBF2F3036110BCB0
:1044CC007047114B0360D8E70E4A53685268C3F328
:1044DC008343023312F4803F04D10E4A02FB03F3F0
:1044EC000360CAE7074A526812F4003F04D0094A35
:1044FC0002FB03F30360C0E7034A02FB03F3036010
:10450C00BBE700BF0010024000127A0078000020C8
:10451C007400002000093D0021B1054A936918433D
:10452C0090617047024A936923EA000090617047DA
:10453C000010024030B587B004460D46038A9BB28A
:10454C00CA8823F440531343038283899BB289881E
:10455C0028896A8901430A4323F4B05323F00C03DE
:10456C001343A381A38A9BB2AA8923F440731343F8
:10457C00A38201A8FFF772FF1D4B9C4224D0039B22
:10458C00A28912F4004F21D103EB830303EB8303C5
:10459C002A689200B3FBF2F3164AA2FB03125209EB
:1045AC001101642002FB1033A28912F4004F16D1C2
:1045BC001B0132330F4AA2FB0323C3F343130B43F8
:1045CC009BB2238107B030BD049BD9E703EB830377
:1045DC0003EB83032A685200B3FBF2F3DCE7DB0046
:1045EC003233044AA2FB0323C3F342130B43E7E722
:1045FC00003801401F85EB5129B183899BB243F4EC
:10460C0000538381704783899BB223F400539BB280
:10461C0083817047C1F3421C01F01F01012303FA8F
:10462C0001F19C4508D0BCF1020F07D014303AB10F
:10463C0003681943016070470C30F8E71030F6E757
:10464C00036823EA010101607047C1F3080181800E
:10465C0070470388194201D0012070470020704731
:10466C00DFF834D0002103E00C4B5B58435004318D
:10467C000B480C4B42189A42F6D30B4A02E000232B
:10468C0042F8043B094B9A42F9D3FFF735FDFBF78F
:10469C007BFDFDF75FFD704700500020CC48000803
:1046AC00000000208800002088000020242E00201C
:1046BC00FEE70000F8B500BFF8BC08BC9E4670478A
:0C46CC00F8B500BFF8BC08BC9E46704763
:1046D800E8460008F0460008FC46000804470008C1
:1046E80049444C4500000000564552494659494E38
:1046F80047000000414C41524D0000004D414E55CD
:10470800414C00007B2266697265223A25642C229E
:10471800676173223A25642C22726177223A2564F4
:104728002C226761735F726177223A25752C2267A4
:1047380061735F746872657368223A25752C226C00
:104748006564223A25642C2262757A7A6572223A67
:1047580025642C227374617465223A222573222CF5
:1047680022616C61726D5F686F6C64223A256C75AA
:104778002C22626C696E6B5F7370656564223A25E2
:104788006C752C227665726966795F74696D65222D
:104798003A256C757D0D0A0074696D65000000008E
:1047A8006475726174696F6E000000006C65640066
:1047B80062757A7A6572000072696E67000000009F
:1047C800616C61726D5F686F6C640000626C696E29
:1047D8006B5F7370656564007665726966795F748E
:1047E800696D65006761735F74687265736800005E
:1047F8006761735F7468726573686F6C640000004A
:1048080063616C6962726174655F6761730000005F
:104818006761735F63616C69620000006D6F646556
:10482800000000006175746F000000006765740087
:104838000D0A7B226576656E74223A2253595354C9
:10484800454D5F494E4954222C226D7367223A2206
:104858004170702053746172746564202D20417218
:104868006D6564227D0D0A004170705461736B00A0
:10487800546D725100000000546D7220537663002D
:10488800232D302B20000000686C4C0065666745BE
:1048980046470000303132333435363738394142F3
:1048A8004344454600000000303132333435363752
:0C48B8003839616263646566000000002E
:0448C4007501000872
:0448C8004D01000896
:1048CC0004000020000000000000000000000000B8
:1048DC0000000000000000000000000000000000CC
:1048EC0000000000000000000000000000000000BC
:1048FC0000000000000000000000000000000000AC
:10490C00000000000000000000000000000000009B
:10491C00000000000000000000000000000000008B
:10492C0000000000A4060000AAAAAAAA0400000025
:10493C0000A24A040204060800000000010203045D
:08494C0001020304060708093B
:040000050800466D3C
:00000001FF
