:020000040800F2
:1000000000500020991B0008250F0008270F00084A
:10001000290F00082B0F00082D0F0008000000001A
:100020000000000000000000000000002F0F00088A
:10003000310F000800000000330F0008350F0008E2
:10004000E91B0008E91B0008E91B0008E91B000880
:10005000E91B0008E91B0008E91B0008E91B000870
:10006000E91B0008E91B0008E91B0008E91B000860
:10007000E91B0008E91B0008E91B0008E91B000850
:10008000E91B0008E91B0008E91B0008E91B000840
:10009000E91B0008E91B0008E91B0008E91B000830
:1000A000E91B0008E91B0008E91B0008E91B000820
:1000B000E91B0008E91B0008E91B0008E91B000810
:1000C000E91B0008E91B0008E91B0008E91B000800
:1000D000E91B00083D0F0008710F0008E91B00082C
:1000E000E91B0008E91B0008E91B000800000000EC
:1000F0000000000000000000000000000000000000
:0C01000000000000000000005FF808F1A3
:10010C000348044B834202D0034B03B1184770479A
:10011C008C0000208C0000200000000005480649DF
:10012C000B1AD90F01EBA301491002D0034B03B1F9
:10013C00184770478C0000208C0000200000000045
:10014C0010B5064C237843B9FFF7DAFF044B13B113
:10015C000448AFF300800123237010BD8C000020F5
:10016C0000000000EC1B000808B5044B1BB104494F
:10017C000448AFF30080BDE80840CFE70000000062
:10018C0090000020EC1B000870B50D4E0D4D761B39
:10019C00B61006D0002455F8043B01349847A6420B
:1001AC00F9D1094E094D01F01BFD761BB61006D096
:1001BC00002455F8043B01349847A642F9D170BD90
:1001CC00B01F0008B01F0008B41F0008B01F0008C3
:1001DC00844641EA000313F0030349D1403A23D388
:1001EC000B6803604B6843608B688360CB68C360AB
:1001FC000B6903614B6943618B698361CB69C36193
:10020C000B6A03624B6A43628B6A8362CB6AC3627A
:10021C000B6B03634B6B43638B6B8363CB6BC36362
:10022C0040304031403ADBD230320BD30B680360A4
:10023C004B6843608B688360CB68C36010301031AF
:10024C00103AF3D20C3205D351F8043B40F8043B7E
:10025C00043AF9D2043208D0D2071CBF11F8013B82
:10026C0000F8013B01D30B8803806046704700BF48
:10027C00082A13D38B07B1D010F00303AED0C3F10F
:10028C000403D21ADB071CBF11F8013B00F8013B39
:10029C00A4D331F8023B20F8023B9FE7043AD9D3B0
:1002AC00013A11F8013B00F8013BF9D20B780370CD
:1002BC004B7843708B7883706046704710B5194C3F
:1002CC00002924689AB028DB009004904FF4027047
:1002DC004FF6FF7CADF80C0011D00139029105915D
:1002EC0020466946ADF80EC000F034F9421C01DA24
:1002FC008B2323600022009B1A701AB010BD029150
:10030C00059120466946ADF80EC000F023F9431C58
:10031C0001DA8B2323601AB010BD8B234FF0FF3012
:10032C002360F8E70000002030B51446002C054689
:10033C009BB029DB1A464FF402734FF6FF7C0091F9
:10034C000491ADF80C3011D0013C69461E9B02940F
:10035C000594ADF80EC000F0FDF8421C01DA8B23B9
:10036C002B600022009B1A701BB030BD1E9B69468F
:10037C0002940594ADF80EC000F0ECF8431C01DAC1
:10038C008B232B601BB030BD8B234FF0FF302B60C9
:10039C00F8E700BF2DE9F0478F680C469F421D46D9
:1003AC00164638D88246888910F4906F0ED13D4697
:1003BC0008682A46314600F01BFC0020A26823681E
:1003CC00D21B2B44A2602360BDE8F0874B690969FE
:1003DC0003EB4308236808EBD878A3EB01096B1CEB
:1003EC004FEA68084B444345424684BF9846424610
:1003FC00430513D51146504600F0DCFC074608B304
:10040C004A462169FFF7E4FEA38923F4906343F085
:10041C008003A38107E01F460868CAE7504600F036
:10042C0025FD074650B107EB0900A8EB090327612E
:10043C00C4F814802F46A3602060BAE750462169A7
:10044C0000F052FC0C23CAF80030A3894FF0FF30A7
:10045C0043F04003A381B7E72DE9F04F9368914631
:10046C0083B0002B6ED0176880460C4608688D68E8
:10047C00083744E0B4F80CC01CF4906F2ED0D4E9CB
:10048C000413451A03EB430303EBD373AA194FEA86
:10049C00630A531C5345524684BF9A4652461CF479
:1004AC00806F36D01146404600F084FC00283AD0CC
:1004BC002A4621690190FFF78BFEA289019B22F449
:1004CC00906242F08002A2815819AAEB0505A56042
:1004DC00C4F814A03546B2462361206059465246F2
:1004EC0000F086FBD9F80830A16820684D1B5044F9
:1004FC009E1BA5602060C9F808601EB3083757E939
:10050C0002B6002EFAD0B542AA46B3D93546B24649
:10051C00E4E7404600F0AAFC03460028D4D140464C
:10052C00216900F0E1FB0C2300224FF0FF30C8F8EA
:10053C000030A38943F04003A381C9E9012203B031
:10054C00BDE8F08F00231846C9F8043003B0BDE8AD
:10055C00F08F00BF2DE9F04F1C468B890F461D060E
:10056C00804692469DB003D50B69002B00F0F380BA
:10057C0000230993302320228DF82A309AF800307A
:10058C00039401257B4C8DF82920002B76D0D14685
:10059C0003E019F8013F002B79D0252BF9D1B9EBE9
:1005AC000A0B77D199F80020002A67D000234FF06E
:1005BC00FF3209F10109CDE90523049307938DF866
:1005CC0053301A9304E0001B05FA00F01843049012
:1005DC00CA460522204619F8011B00F0C1FA049BFB
:1005EC000028F0D1D80644BF20228DF853201907DB
:1005FC0048BF2B229AF8001048BF8DF853202A29A7
:10060C0056D1039A11680432002903927EDB0791BC
:10061C009AF801100AF1010A2E295BD0DFF85891E3
:10062C000322484600F09CFA48B14022049BA0EB00
:10063C00090002FA00F003430AF1010A04931AF8C4
:10064C00011B06224D488DF8281000F089FA00286D
:10065C0062D04B4B002B52D003A900913A46404636
:10066C00484B04A9AFF300800646721C06D0099BC8
:10067C00334409939AF80030002B88D1BB895B0670
:10068C004CBF4FF0FF3009981DB0BDE8F08FB9EBAF
:10069C000A0BF3D05B46524639464046FFF77AFECA
:1006AC000130EBD0099B99F800205B4409937BE760
:1006BC00A1F13002092AAFD8079B1AF8011F03EBEE
:1006CC00830302EB4303A1F13002092AF5D92E2949
:1006DC000793A3D19AF801102A2927D1039B0AF179
:1006EC0002001A680433002A0393B8BF4FF0FF339B
:1006FC009AF8021005928246B8BF05938EE7039BC9
:10070C00073323F0070308330393B0E7494243F060
:10071C000203079104937BE703A900913A464046F4
:10072C00184B04A900F0C6F806469EE70023A1F179
:10073C003002092A0AF1010A05933FF66FAF1AF845
:10074C00011F03EB830302EB4303A1F13002092ADF
:10075C00F5D9059362E7402100F02CFB3860386135
:10076C0010B140237B6103E70C234FF0FF30C8F836
:10077C00003089E7741F00087C1F0008801F0008E8
:10078C0000000000A10300082DE9F04791461E4629
:10079C000A698B680C469A42B8BF1A46C9F8002001
:1007AC0091F843300546DDF8208013B10132C9F8C9
:1007BC000020226891065DD5D9F800300233C9F8C3
:1007CC000030226812F0060F11461ED1E168CB1AD8
:1007DC00002BD8BF114618DD002704F1190A06E0DA
:1007EC00D9F80030E268A2EB030CBC450CDD012308
:1007FC00524631462846C047013007F10107EFD178
:10080C004FF0FF30BDE8F087216894F84330003B8F
:10081C0018BF01238A060AD53021E21882F843104A
:10082C0094F845105A1C2244023382F84310314686
:10083C00284604F14302C0470130E1D0236803F09D
:10084C000603042B1DD0A3682269934225DD0027E3
:10085C009B1A1F4404F11A09002401E0BC421CDA63
:10086C0001234A4631462846C047013004F10104B1
:10087C00F4D1C5E712F0060F12D0003B18BF0123CC
:10088C00D5E7D9F80030E1682269C91AA36821EAD2
:10089C00E1779342DCDC0029DCDC0020BDE8F0874A
:1008AC00E168D9F80030CB1A002BD8BF114693DC85
:1008BC00ABE700BF2DE9F04317460A7E85B00C4626
:1008CC00064698460C9D01F1430C002A33D0A2F148
:1008DC005803D9B2202967D8202B65D8DFE813F04C
:1008EC00DD00640064006400640064006400640063
:1008FC00640064006400A3006E0064006400640083
:10090C0064006E00640064006400640021007F00D9
:10091C00BF0064006400AE0064007F0064006400EB
:10092C00E40023681A0640F102812B686269191DE4
:10093C0029601B681A600023E14623613B4621466F
:10094C003046CDF8008003AAFFF71EFF013020D0FF
:10095C004A46394630462369C047013019D02368CE
:10096C00E0689B07039919D5431A002B16DD002567
:10097C0004F1190904E0E0680399431AAB420DDD58
:10098C0001234A4639463046C047013005F101057E
:10099C00F1D14FF0FF3005B0BDE8F0838842B8BF0D
:1009AC00084605B0BDE8F083012384F8422004F129
:1009BC0042092361002384F84330BFE723681906FA
:1009CC0002D45A0600F1BF8029680A6804312960F4
:1009DC001146002A6ADB0A25DFF87CE110E0236867
:1009EC00180640F19A802B68191D296019686F2A26
:1009FC000CBF08250A25DFF860E1002384F843309A
:100A0C006268002AA2607DDB236823F00403236064
:100A1C00002959D1002A77D1E146082D63D0ACEBDF
:100A2C00090323618AE701222B6804F14209196842
:100A3C0004332B6084F842102261BBE72B68002141
:100A4C001A1D2A60D3F800906268484600F088F8B6
:100A5C0000287FD0A0EB090060602061AAE7236822
:100A6C0043F0200323607822DFF8F0E084F845207F
:100A7C002A68111D2960190642D45D0640D51188DB
:100A8C00D80744BF43F020032360002943D12368D7
:100A9C00102523F020032360AFE75823DFF8B8E0DC
:100AAC0084F845302368E3E72368DCE72D2284F8DB
:100ABC00432062684942002AA26002DB23F004034F
:100ACC0023600A25DFF890E0E146B1FBF5F30A4616
:100ADC0005FB131019461EF80030AA4209F8013D17
:100AEC00F3D2082D9BD12368D90798D56268236966
:100AFC009A4294DC302309F1FF3989F800308EE7F3
:100B0C001168BDE70029DFD19EF8003004F14209DD
:100B1C0084F8423081E710256FE713F0400F2B6803
:100B2C0003F1040129600CBF196819885FE713F001
:100B3C00400F2B68626903F1040129601B6814BF24
:100B4C001A801A60F7E62A68B2F9001004322A609B
:100B5C000A463EE7606880E7881F00089C1F000873
:100B6C005FFA81FC810710D00346511E2AB90AE0B6
:100B7C009A0718460AD0013905D3184613F8012BE9
:100B8C006245F5D1704700207047114603290CD8F7
:100B9C000029F8D00346014401E08B42F3D01846FB
:100BAC0013F8012B6245F8D1ECE7024610B54CEA7C
:100BBC000C2444EA04441046036804326340A3F155
:100BCC00013E2EEA030313F0803F04D104390329BC
:100BDC001046F0D851B10346014401E08B4205D0D8
:100BEC00184613F8012B6245F8D110BD002010BD3A
:100BFC0088420DD98B1883420AD900EB020CBAB18A
:100C0C00624613F801CD994202F801CDF9D1704733
:100C1C000F2A0ED8034602F1FF3C4AB10CF1010C2D
:100C2C00013B8C4411F8012B614503F8012FF9D1DC
:100C3C00704740EA01039B074FD1A2F1100370B536
:100C4C0001F1200C23F00F0501F1100E00F110043E
:100C5C00AC441B095EF8105C0EF1100E44F8105CED
:100C6C005EF81C5C103444F81C5C5EF8185C44F8AC
:100C7C00185C5EF8145CE64544F8145CEAD1013368
:100C8C0012F00C0F01EB031102F00F0400EB031335
:100C9C0027D08E46043C24F003064FEA940C1E44E5
:100CAC001C1F5EF8045B44F8045FB442F9D10CF1EC
:100CBC00010402F0030203EB840301EB840102F153
:100CCC00FF3C4AB10CF1010C013B8C4411F8012B97
:100CDC00614503F8012FF9D170BD034602F1FF3CC9
:100CEC009CE72246EBE700BF002952D038B551F8FB
:100CFC00043C0C1F002BB8BFE418054600F0F0F8BC
:100D0C002B4A1368002B45D0A3420CD921686018DC
:100D1C00834228D0636028461460BDE8384000F058
:100D2C00E1B8A3420FD81A465B68002BF9D11168C1
:100D3C00501884421DD034D3636054602846BDE8FB
:100D4C00384000F0CFB811685018A04215D028D800
:100D5C00216860188342EFD118685B680144C4E9CC
:100D6C0000135460EAE718685B680144C4E9001397
:100D7C00D1E7236819441160E0E72068014450185A
:100D8C0083421160DAD1D3E900030144C2E90013B4
:100D9C00D4E77047284663601460BDE8384000F023
:100DAC00A1B80C2328462B60BDE8384000F09AB857
:100DBC00A8000020F8B5CD1C25F0030508350C2D36
:100DCC0038BF0C25002D064623DBA94221D8264F1F
:100DDC0000F086F83A6822B3144603E063682246B2
:100DEC00FBB11C4623685B1BF8D40B2B15D863682E
:100DFC0094420CBF3B605360304600F073F804F132
:100E0C000B00231D20F00700C21A01D01B1AA3509F
:100E1C00F8BD0C2300203360F8BD23601C44256012
:100E2C00EAE77968D1B12946304600F047F8431C0F
:100E3C0001460CD0C41C24F00304A04205D030465B
:100E4C00611A00F03BF8013001D02560D4E70C2387
:100E5C003046336000F046F80020F8BD304600F014
:100E6C002DF87860DFE700BFA8000020F8B5144625
:100E7C00F9B1CAB106460D4600F036F8A04202D3CD
:100E8C002F463846F8BD21463046FFF793FF0746FC
:100E9C000028F6D022462946FFF79AF93046294613
:100EAC00FFF722FF3846F8BD2746FFF71DFF3846EF
:100EBC00F8BD1146BDE8F840FFF77CBF002238B5FD
:100ECC00064D044608462A6000F018F8431C00D072
:100EDC0038BD2B68002BFBD0236038BDB000002040
:100EEC00704700BF704700BF51F8040C0028A0F1F8
:100EFC000400BCBF0B58C018704700BF044A05491A
:100F0C001368002B08BF0B46184410601846704736
:100F1C00B4000020E00400207047FEE7FEE7FEE787
:100F2C00FEE770477047704708B500F0AFF908BD91
:100F3C0000B583B00A4B1B889BB20193019B13F045
:100F4C002E0F06D0064B9888C0B2019B13F0200FD1
:100F5C0002D103B05DF804FB00F0BCF8F9E700BF68
:100F6C000038014000B583B00A4B1B889BB201933B
:100F7C00019B13F02E0F06D0064B9888C0B2019B34
:100F8C0013F0200F02D103B05DF804FB00F056F90A
:100F9C00F9E700BF0044004070B586B004464FF43A
:100FAC0000722949294800F079FA012144F2050020
:100FBC0000F03AFD0021042000F09AFC4FF400737D
:100FCC00ADF8143018238DF8173003238DF8163034
:100FDC001F4D05A9284600F02FFC4FF48063ADF897
:100FEC00143004238DF8173005A9284600F024FC92
:100FFC0001940024ADF80840ADF80A40ADF80C405F
:10100C00ADF810400C23ADF80E3005F5405501A994
:10101C00284600F025FD012240F22551284600F01B
:10102C008FFD25238DF8003001268DF801608DF899
:10103C0002408DF80360684600F0CCFB3146284630
:10104C0000F070FD06B070BDC8000020B800002094
:10105C000008014038B505460A4C80210A4800F0CA
:10106C008EFD08B9013CF8D12946074800F083FDF4
:10107C00044C4021044800F082FD08B9013CF8D131
:10108C0038BD00BFA08601000038014010B50446F1
:10109C0018B905E00134FFF7DDFF20780028F9D1FD
:1010AC0010BD0FB410B5C2B044AB53F8042B019370
:1010BC004FF4807102A8FFF701F9041E05DC2046ED
:1010CC0042B0BDE8104004B0704702A8FFF7DEFF45
:1010DC00F5E7000000B583B08DF8070001220DF193
:1010EC000701034800F002FA03B05DF804FB00BFEF
:1010FC00B800002008B5024800F03BFA80B208BDE9
:10110C00B800002050B108B501460122044800F097
:10111C0046FA012814BF0020012008BD00207047AA
:10112C00B800002070B586B004464FF400722A490E
:10113C002A4800F0B3F90121042000F075FC0121CC
:10114C004FF4003000F07EFC0423ADF8143018236B
:10115C008DF8173003238DF81630214D05A928463C
:10116C0000F06AFB0826ADF8146048238DF81730A0
:10117C0005A9284600F060FB3146284600F0B5FB77
:10118C0001940024ADF80840ADF80A40ADF80C40CD
:10119C00ADF810400C23ADF80E30A5F5444501A96F
:1011AC00284600F05DFC012240F22551284600F053
:1011BC00C7FC26238DF800308DF801408DF80240D5
:1011CC0001248DF80340684600F004FB21462846B4
:1011DC0000F0A8FC06B070BDD8020020C8020020A8
:1011EC000008014038B505460A4C80210A4800F039
:1011FC00C6FC08B9013CF8D12946074800F0BBFCF5
:10120C00044C4021044800F0BAFC08B9013CF8D168
:10121C0038BD00BFA08601000044004010B5044654
:10122C0038B909E00134FFF7DDFF4FF4FA7000F034
:10123C007FF820780028F5D110BD000000B583B0F0
:10124C008DF8070001220DF10701034800F04EF95B
:10125C0003B05DF804FB00BFC802002008B50248CB
:10126C0000F087F980B208BDC802002050B108B563
:10127C0001460122044800F092F9012814BF002015
:10128C00012008BD00207047C8020020024A1368E4
:10129C0001331360704700BFDC04002008B500F078
:1012AC004FFA0B4B1B680B4AA2FB03239B09013B18
:1012BC004FF0E0225361084BF02183F823100023F8
:1012CC00936107231361054B01221A7008BD00BFFF
:1012DC0074000020D34D621000ED00E0D804002013
:1012EC00014B1868704700BFDC04002010B50446A1
:1012FC00074B1B7813B1074B1A6803E0FFF7CEFFBF
:10130C00F9E700BF034B1B689B1AA342F9D310BD2E
:10131C00D8040020DC04002010B504E04FF47A70EF
:10132C00FFF7E4FF2046441E0028F7D110BD000053
:10133C0010B50446124B1B786BB1124B1B68124A4A
:10134C00A2FB033C4FEA9C4C04FB0CFC4FF0E0234B
:10135C009B69002109E0FFF7A1FFEEE74FF0E020C9
:10136C004069801A034419441346614507D24FF073
:10137C00E02292699342F1D39B1A1944F4E710BD11
:10138C00D80400207400002083DE1B4370B582B0AB
:10139C00FFF784FF4FF4E130FFF7FEFD4FF4E1302F
:1013AC00FFF7C0FE0120FFF7B7FF3048FFF779FECB
:1013BC002F48FFF776FE2F48FFF773FE2E48FFF7F6
:1013CC0070FE2E48FFF76DFE2D48FFF727FF4FF4F8
:1013DC009670FFF78BFFFFF783FF0446002514E0A0
:1013EC00FFF788FE50B10DF10700FFF78BFE0028C8
:1013FC00F6D09DF80700FFF7F5FEF1E7FFF770FF59
:10140C00031B40F6C31293420ED8FFF727FF0028A8
:10141C00E6D00DF10700FFF729FF0028F5D09DF865
:10142C000700FFF717FEF0E7FFF75AFF0446062DFB
:10143C0015D81448FFF735FE134E06EBC503596853
:10144C001248FFF72EFE56F8356031461048FFF76C
:10145C0028FE3046FFF7E2FE0135EDB2D5E70D4828
:10146C00FFF71FFE0C48FFF7D9FECEE7041C00085F
:10147C00401C00087C1C0008B81C0008EC1C000870
:10148C00D81D00082C1D00083C1F0008641D000816
:10149C00701D0008841D0008A81D0008034660B1DB
:1014AC0069B10AB900207047002018605860986034
:1014BC00D8605A60196001207047002070470020E6
:1014CC007047034670B1026872B1406868B1DA685F
:1014DC009B689A4201D002D2981A013870479B1A25
:1014EC001844FAE700207047002070472DE9F041BE
:1014FC0098B30E4614460746D0F80080B8F1000F9A
:10150C002FD0456855B371B37AB3FFF7DAFF844235
:10151C0028BF04460CB9254620E0F8682D1AA542D0
:10152C0028BF25462A4631464044FEF751FEFB684B
:10153C002B44FB60B4EB050807D1FA687B689A4230
:10154C0015D30023FB60254608E042467119386824
:10155C00FEF73EFEC7F80C80EFE700252846BDE8F5
:10156C00F0810025FAE70025F8E71546F6E7254651
:10157C00F4E7034668B102686AB1406870B1DA6892
:10158C009B689A4209D001D9D01A7047D21A1044DC
:10159C0070470020704700207047002070472DE9ED
:1015AC00F04198B30E4614460746D0F80080B8F1C7
:1015BC00000F2FD0456855B371B37AB3FFF7D9FF3D
:1015CC00844228BF04460CB9254620E0B9686D1A40
:1015DC00A54228BF25462A4641443046FEF7F8FD71
:1015EC00BB682B44BB60B4EB050807D1BA687B68B9
:1015FC009A4215D30023BB60254608E04246396861
:10160C007019FEF7E5FDC7F80880EFE700252846BE
:10161C00BDE8F0810025FAE70025F8E71546F6E766
:10162C002546F4E782B00023019300932C4A1368FB
:10163C0043F4803313602A4B1B6803F4003300938C
:10164C00019B01330193009B1BB9019BB3F5A06F68
:10165C00F1D1234B1B6813F4003F06D001230093F8
:10166C00009B012B04D002B0704700230093F7E7D6
:10167C001C4B1A6842F010021A601A6822F003021E
:10168C001A601A6842F002021A60A3F580535A6875
:10169C005A605A685A605A6842F480625A605A68B2
:1016AC0022F47C125A605A6842F4E8125A601A68A2
:1016BC0042F080721A600A4B1B6813F0007FFAD05C
:1016CC00074B5A6822F003025A605A6842F0020231
:1016DC005A60034B5B6803F00C03082BF9D1C2E78B
:1016EC00001002400020024008B5FFF79BFF08BD28
:1016FC0008B5104B1A6842F001021A6059680E4A7C
:10170C000A405A601A6822F0847222F480321A60FD
:10171C001A6822F480221A605A6822F4FE025A6077
:10172C004FF41F029A60FFF7DFFF044B4FF000628B
:10173C009A6008BD001002400000FFF800ED00E0C8
:10174C001F4B5B6803F00C03042B15D0082B17D030
:10175C001BB11C4B1C4A1A6002E01A4B1A4A1A6045
:10176C00174B5B68C3F30313184AD35CDAB2154901
:10177C000B68D3400B607047124B134A1A60EFE7AB
:10178C000F4A53685268C3F38343023312F4803F09
:10179C0005D10F4A02FB03F30A4A1360E0E7084A3B
:1017AC00526812F4003F05D0094A02FB03F3054AC4
:1017BC001360D5E7044A02FB03F3024A1360CFE738
:1017CC00001002407400002000127A006400002017
:1017DC0000093D00C378FBB1154BDA68D243C2F364
:1017EC000222C2F1040C0F2323FA02F2417801FA0F
:1017FC000CF1837813400B431B010278DBB20D49CB
:10180C000A4482F80033037803F01F005B090122BD
:10181C00824041F823207047037803F01F015B09D5
:10182C0001228A402033034941F82320704700BF2E
:10183C0000ED00E000E100E030B5CB7803F00F02E2
:10184C00964613F0100F03D091F802E04EEA020E08
:10185C000B7803B30468002301E042610133072BCA
:10186C0018D801229A40B1F800C032EA0C05F5D123
:10187C004FEA830C0F2505FA0CF524EA05040EFA41
:10188C000CFC4CEA0404CD78282DE6D0482DE5D18B
:10189C000261E3E704600B88FF2B25D94468002321
:1018AC0003E0CD78482D1CD00133072B1BD803F156
:1018BC00080C012202FA0CF2B1F800C032EA0C0555
:1018CC00F2D14FEA830C0F2505FA0CF524EA050436
:1018DC000EFA0CFC4CEA0404CD78282DE1D14261BF
:1018EC00DFE70261E0E7446030BD01617047000052
:1018FC0010B5002816DB1C4B5B68C0F303421FFAC3
:10190C0080FE00F4401CBCF5401F0ED010F4801F6C
:10191C001DD04FF0030C0CFA02F223EA020343F041
:10192C00706309E0104BDB69E7E723F070630E4C42
:10193C00626822F07062626021B1420D12010EFAEF
:10194C0002F2134300280BDB074A536010BD420D13
:10195C0012010EFA02F223EA020343F07063EBE782
:10196C00014AD361F2E700BF0000014010B4294BDB
:10197C005B6803F00C03042B2BD0082B2CD013B179
:10198C00254B036001E0244B036022494B68C3F3F1
:10199C000313224CE35CDAB20368D34043604A6819
:1019AC00C2F30222A25CD2B223FA02F282604A682B
:1019BC00C2F3C222A25CD2B2D340C3604A68C2F363
:1019CC00813217498A5CD2B2B3FBF2F3036110BCCB
:1019DC007047114B0360D8E70E4A53685268C3F343
:1019EC008343023312F4803F04D10E4A02FB03F30B
:1019FC000360CAE7074A526812F4003F04D0094A50
:101A0C0002FB03F30360C0E7034A02FB03F303602A
:101A1C00BBE700BF0010024000127A007C000020DF
:101A2C007800002000093D0021B1054A9369184354
:101A3C0090617047024A936923EA000090617047F5
:101A4C000010024021B1054AD3691843D061704798
:101A5C00024AD36923EA0000D061704700100240AB
:101A6C0030B587B004460D46038A9BB2CA8823F46E
:101A7C0040531343038283899BB2898828896A89DE
:101A8C0001430A4323F4B05323F00C031343A38103
:101A9C00A38A9BB2AA8923F440731343A38201A89F
:101AAC00FFF764FF1D4B9C4224D0039BA28912F4C8
:101ABC00004F21D103EB830303EB83032A689200CD
:101ACC00B3FBF2F3164AA2FB031252091101642074
:101ADC0002FB1033A28912F4004F16D11B013233D2
:101AEC000F4AA2FB0323C3F343130B439BB2238183
:101AFC0007B030BD049BD9E703EB830303EB8303EF
:101B0C002A685200B3FBF2F3DCE7DB003233044A01
:101B1C00A2FB0323C3F342130B43E7E70038014056
:101B2C001F85EB5129B183899BB243F40053838108
:101B3C00704783899BB223F400539BB28381704717
:101B4C00C1F3421C01F01F01012303FA01F19C4572
:101B5C0008D0BCF1020F07D014303AB10368194316
:101B6C00016070470C30F8E71030F6E7036823EAA1
:101B7C00010101607047C1F308018180704703883F
:101B8C00194201D00120704700207047DFF834D093
:101B9C00002103E00C4B5B58435004310B480C4BB9
:101BAC0042189A42F6D30B4A02E0002342F8043B57
:101BBC00094B9A42F9D3FFF79BFDFEF7E5FAFFF7C5
:101BCC00E5FB704700500020B81F00080000002003
:101BDC008C0000208C000020E0040020FEE70000B8
:101BEC00F8B500BFF8BC08BC9E467047F8B500BFFE
:081BFC00F8BC08BC9E467047CE
:101C04000D0A3D3D3D3D3D3D3D3D3D3D3D3D3D3D63
:101C14003D3D3D3D3D3D3D3D3D3D3D3D3D3D3D3DF0
:101C24003D3D3D3D3D3D3D3D3D3D3D3D3D3D3D3DE0
:101C34003D3D3D3D3D3D3D3D3D0D0A0020202053B1
:101C4400544D3332463130333A20444542554720CF
:101C5400285041392F504131302920262053494DF5
:101C64002041373638304320285041322F504133F9
:101C740029200D0A000000003D3D3D3D3D3D3D3D18
:101C84003D3D3D3D3D3D3D3D3D3D3D3D3D3D3D3D80
:101C94003D3D3D3D3D3D3D3D3D3D3D3D3D3D3D3D70
:101CA4003D3D3D3D3D3D3D3D3D3D3D3D3D3D3D0D90
:101CB4000A0000002D3E2048652074686F6E67207E
:101CC40063686179206368756F69206B69656D204D
:101CD4007472612053494D20747520646F6E672EB1
:101CE4002E2E0D0A000000002D3E2042616E20635E
:101CF400756E6720636F2074686520676F20747247
:101D040075632074696570206C656E682041542089
:101D140074752062616E207068696D204D696E690A
:101D2400636F6D2E0D0A00000D0A2D2D2D2D2D2D06
:101D34002D2D2D2D2D2D2D2D2D2D2D2D2D2D2D2DCF
:101D44002D2D2D2D2D2D2D2D2D2D2D2D2D2D2D2DBF
:101D54002D2D2D2D2D2D2D2D2D2D2D2D2D0D0A001F
:101D64005B42554F432025735D0D0A005B4755497F
:101D7400204C454E485D3A2025730D0A00000000B2
:101D84000D0A5B4B49454D2054524120534F4E4759
:101D94002044494E48204B595D3A2041542B43532B
:101DA400510D0A0041542B4353510D0041540D0071
:101DB400312E2054657374206B6574206E6F692016
:101DC40055415254206D6F64756C652053494D0024
:101DD400415445300D000000322E205461742063BC
:101DE400686520646F207068616E20686F69206C7C
:101DF4006170206C616920284563686F204F4646F6
:101E04002900000041542B4350494E3F0D0000006F
:101E1400332E204B69656D207472612074686520CF
:101E240053494D202843616E2070686169207472A3
:101E340061207665202B4350494E3A205245414457
:101E44005929000041542B434349440D000000002C
:101E5400342E20446F63206D6120536572692074B1
:101E640068652053494D205669657474656C202853
:101E7400446175203839383430342E2E2E29000030
:101E8400352E204B69656D207472612063756F6E09
:101E94006720646F20736F6E67205669657474657C
:101EA4006C2028546F74206E6861743A2031352D8B
:101EB4003331290041542B43455245473F0D00001F
:101EC400362E204B69656D207472612064616E67E3
:101ED400206B79206D616E67203447204C54452077
:101EE4002843616E20706861692074726120766590
:101EF40020302C312900000041542B434F50533FD4
:101F04000D000000372E204B69656D20747261202E
:101F140074656E206E6861206D616E672028436170
:101F24006E20706861692072612027566965747437
:101F3400656C272900000000B01D0008B41D0008CE
:101F4400D41D0008DC1D0008081E0008141E00082B
:101F5400481E0008541E0008A81D0008841E00081E
:101F6400B81E0008C41E0008FC1E0008081F000854
:101F7400232D302B20000000686C4C0065666745FB
:101F84004647000030313233343536373839414230
:101F9400434445460000000030313233343536378F
:0C1FA4003839616263646566000000006B
:041FB00075010008AF
:041FB4004D010008D3
:101FB80004000020000000000000000000000000F5
:101FC8000000000000000000000000000000000009
:101FD80000000000000000000000000000000000F9
:101FE80000000000000000000000000000000000E9
:101FF80000000000000000000000000000000000D9
:1020080000000000000000000000000000000000C8
:1020180000000000000000000000000001020304AE
:102028000607080900A24A04020406080000000086
:0C2038000102030401020304060708096A
:0400000508001B993B
:00000001FF
